:020000040800F2
:1000000030060020050100084F2C0008812A000856
:100010004D2C0008DD1500083931000800000000F3
:10002000000000000000000000000000492D000852
:10003000DF15000800000000512C00084B2D0008BF
:100040001F0100081F0100081F0100081F01000810
:100050001F0100081F010008E11500081F0100082A
:100060001F0100081F0100081F0100081F010008F0
:100070001F0100081F0100081F0100081F010008E0
:100080001F0100081F0100081F0100081F010008D0
:100090001F0100081F0100081F0100081F010008C0
:1000A0001F0100081F0100081F0100081F010008B0
:1000B0001F0100081F0100081F0100081F010008A0
:1000C0001F0100081F0100081F010008552C00082F
:1000D0001F010008093100081F0100081F01000866
:1000E0001F0100081F0100081F010008DFF810D0E1
:1000F00000F010FC00480047553B0008AFF30080BB
:10010000300600200648804706480047FEE7FEE725
:10011000FEE7FEE7FEE7FEE7FEE7FEE7FEE7FEE7B7
:10012000A72D0008ED000008202A04DB203A00FA81
:1001300002F1002070479140C2F1200320FA03F33E
:10014000194390407047202A04DB203A21FA02F03C
:100150000021704721FA02F3D040C2F12002914001
:1001600008431946704740EA01039B0703D009E0A2
:1001700008C9121F08C0042AFAD203E011F8013B93
:1001800000F8013B521EF9D27047D2B201E000F8EC
:10019000012B491EFBD270470022F6E710B513462B
:1001A0000A4604461946FFF7F0FF204610BDF0B49A
:1001B00080EA0102D40F4200B2EB410F02D20246A4
:1001C000084611464A0042D0C30DDDB2C1F3C75202
:1001D000AD1A202D35DAC1F3160141F4000204B145
:1001E0005242C5F1200602FA06F12A411044B3EB4F
:1001F000D05F23D0C4B1012DA0EBC35009DCF0BC0B
:100200004FF0004202EAC352DBB200F5000000F0FA
:10021000C6BA400000F1807000EBC350A0F18070BE
:1002200040EAD170490009E0490841EAC071A0EBF9
:10023000C35000F50000400800EBC350F0BC00F0D4
:10024000A5BA6142012202EB4101001BF6E7F0BCB6
:10025000704781F00041AAE780F00040A7E780EAFC
:10026000010210B502F00043400022D04A001FD026
:10027000010E01EB1261C0F35600C2F3560240F4C6
:10028000000042F40002A0FB022000047F391404A5
:1002900000D0401C50EA124001D44000491EC2B2B6
:1002A0000C0604EBD010401C4008802A02D003E06A
:1002B000002010BD20F00100002900DA00201843C2
:1002C00010BD30B480EA010202F0004530F0004277
:1002D00021F0004013D090B1C30DD40DC2F316012C
:1002E000C0F31600E41A41F4000140F400027D342A
:1002F000914201D3641C00E04900002C02DA30BCBA
:10030000002070474FF400000023914201D3891A66
:10031000034340084FEA4101F7D151B1914202D164
:100320004FF0004105E002D24FF0010101E06FF013
:10033000010103EBC450284430BC00F027BA42004E
:1003400005D0C0F3C7525242914201DC00207047F1
:1003500000EBC15070472DE9FE4F804681EA030053
:10036000C00F0C46009021F0004123F00045B8EB8F
:100370000200A94105D24046214690461C460B4644
:10038000024623F00040104347D0270DC7F30A0070
:10039000C3F30A510290401A019040286BDAC3F36C
:1003A000130040F4801B0098924620B10023D2EB4A
:1003B000030A63EB0B0B01985946C0F1400250460B
:1003C000FFF7B2FE06460D4650465946019A00F028
:1003D000CBF910EB08006141002487EA115284EA4E
:1003E000E7731A4340D0009A62B3019A012A4FEA98
:1003F000075215DC001B61EB02014FF0004202EADC
:100400000752CDE90042001C41F5801132462B46CF
:1004100000F002FA03B0BDE8F08F40462146F9E74C
:10042000001B61EB0201001C41F5801300185B41C9
:100430002018A2F5001747EB030140EAD570B61962
:100440006D4111E06D084FEA360645EAC0754FEA86
:100450000752001B61EB0201001C41F580114908A5
:100460004FEA30000019514132462B4603B0BDE837
:10047000F04F00F0C2B90098012240000023D0EBF9
:10048000020263EBE073009821464FEAE074B8EB98
:10049000000061EB0401E9E783F000435BE781F0D2
:1004A000004158E72DE9FE4F81EA030404F00044BF
:1004B00021F0004100944FF0000B23F0004350EA7C
:1004C00001045ED052EA03045BD0C3F30A54C1F3C3
:1004D0000A552C44A4F2F3340194A0FB0254C1F356
:1004E000130141F48011C3F3130343F4801301FBA0
:1004F000024400FB034E840A970A44EA815447EA07
:100500008357A4FB076802958D0A05FB07854FEA10
:10051000932C04FB0C542705029D4FEA065847EA2A
:100520001637B5EB08056EEB070C870E920E47EAFF
:10053000811742EA8312A7FB0201B6EB0B0164EBC1
:1005400000042B0D43EA0C335E1844EB1C50DA46D2
:100550005146E7FB0201C5F313044FEA0B3343EAAC
:1005600014534FEA0432019C43EA0603A4F10C043D
:100570000294009CCDE900B400F04EF903B0BDE850
:10058000F08F00200146F9E72DE9F04D81EA0304E0
:1005900004F0004B21F0004514464FF0000A23F010
:1005A000004150EA050220D054EA01021DD0C5F3F3
:1005B0000A570246C5F31303C1F31300C1F30A56E9
:1005C00040F4801543F48013A7EB0608101BD646B1
:1005D00008F2FD3873EB050002D308F1010801E0D1
:1005E00092185B41B8F1000F03DA00200146BDE824
:1005F000F08D00204FF48011064684460EE0171B54
:1006000073EB050705D3121B63EB050306434CEAA6
:10061000010C49084FEA300092185B4150EA01078B
:10062000EDD152EA030012D082EA040083EA050108
:10063000084305D0101BAB4106D20122002306E07F
:1006400000224FF0004302E06FF0010253101AEB5A
:1006500006004CEB085110EB0A0041EB0B01BDE822
:10066000F04D00F0CAB8C10F80EAE0700844CA0734
:100670009623002100F093B896230022114600F043
:100680008EB800F0004220F00040C10DC0F316000B
:1006900040F400007F2901DA00207047962903DC2E
:1006A000C1F19601C84001E096398840002AF4D093
:1006B0004042704700F0004230F000400AD0C10DC7
:1006C00001F56071C0F3160042EA0151C20840070B
:1006D0001143704700200146704730B50B46014674
:1006E00000202022012409E021FA02F59D4205D3D1
:1006F00003FA02F5491B04FA02F52844151EA2F17B
:100700000102F1DC30BD2DE9F05F05460020924684
:100710009B4688460646814640241BE028464146C3
:1007200047462246FFF70FFD53465A46C01A9141ED
:1007300010D3114618462246FFF7F6FC2D1A67EB38
:1007400001084F46224601200021FFF7EDFC17EB80
:1007500000094E41201EA4F10104DFDC4846314669
:100760002A464346BDE8F09F202A06DBCB17203AF5
:1007700041FA02F043EAE07306E041FA02F3D040A6
:10078000C2F1200291400843194670470029A8BFD2
:100790007047401C490008BF20F00100704710B4AA
:1007A000B0FA80FC00FA0CF050EA010404BF10BC5F
:1007B000704749B1CCF1200421FA04F411FA0CF18C
:1007C00018BF012121430843A3EB0C01CB1D4FEAC5
:1007D00000614FEA102042BF002010BC704700EBC0
:1007E000C35010440029A4BF10BC7047401C4900EE
:1007F00008BF20F0010010BC704710B5141E73F143
:10080000000408DA401C41F1000192185B411A43D0
:1008100001D120F0010010BD2DE9F04D92469B461C
:1008200011B1B1FA81F202E0B0FA80F220329046C2
:10083000FFF77AFC04460F4640EA0A0041EA0B0142
:1008400053465A46084313D0114653EA010019D0C3
:10085000C8F140025046FFF776FC05460E4650466A
:1008600059464246FFF760FC084305D0012004E0EA
:1008700020463946BDE8F08D0020054346EAE07683
:100880002C4337430A986305E40AA0EB08000022D2
:10089000FD0A44EA47540A3002D500200146E9E740
:1008A000010510196941DDE9084500196941BDE8F4
:1008B000F04DA2E7C1F30A52C1F3130140F2FF3336
:1008C00041F480119A4202DA00200146704740F25A
:1008D00033439A42A2F2334202DC5242FFF733BC66
:1008E000FFF722BC30B5041E71F1000404DB4FF0A9
:1008F0000044404264EB0101141E73F1000405DB67
:100900001C464FF00043524263EB0403994208BF78
:10091000904230BD064C074D06E0E06840F0010310
:1009200094E8070098471034AC42F6D3FFF7E2FB97
:10093000083E0008283E000894B000F00CFB00F0D0
:100940004DFB364803210D91099008904FF47A70C1
:100950001090344E012432480A96CDE90B0402204F
:10096000CDE90E4008A800F005F910B12EA002F064
:10097000E5FB0321002000F087FA0121324800F056
:1009800056FA122011900820CDE9120411A800F0A7
:1009900079F80B200025CDE90240CDE904548DF80B
:1009A00018408DF819508DF81C4002A800F0B7F8D7
:1009B0000122911E104600F0DCFA012000F024FA1A
:1009C000012000F099F8214C0421012000F0F6FAF2
:1009D0000028F9D0042000F0E2FA012000F0E6FB44
:1009E00007462068401C20609628EDD13246012140
:1009F0003846256000F052F8FFF75CFE89468046D5
:100A0000134A144BFFF7A7FCCDE9000142464B46C1
:100A1000394611A002F092FBD6E700000024744B87
:100A20007B148E3FC3F5E83F4144353934302050C4
:100A300047412063616C6962726174696F6E206600
:100A400061696C65642E0000400010000400002005
:100A5000C3F5285C8FC2F13F41444320436F646576
:100A60003A25642C20646966662D766F6C743A2092
:100A7000252E34662C20766F6C743A252E34662031
:100A80000D0A0000D0E90012008941EA022141EA82
:100A9000004142F2A81000F02BBD000070B51646D0
:100AA0000C46134DA0F50040FFF7DDFD052C12D2DA
:100AB000DFE804F0110306090E004FF07F5108E053
:100AC0004FF0FF3101E06FF00101FFF738FC02E069
:100AD0000849FFF7F6FB3146FFF7C1FB6FF00E0147
:100AE000FFF72DFC2946BDE87040FFF7B8BB0000BA
:100AF000110E813F0000104170B504464FF40055BF
:100B0000284600F075FB012C06D020F480712846A1
:100B1000BDE8704000F0ECBC40F48071F7E770B5C0
:100B2000044642F24405284600F062FB00F08001D2
:100B3000E0680843217C012901D140F01000617C6C
:100B4000012901D140F04000616840EA012021689C
:100B500040EA0130A16840EA8131284600F0C8FC33
:100B6000207D002805D0BDE870400121080400F078
:100B70005EB970BD2DE9F04FA9B0040007D0A0699F
:100B8000042807D96FF0010029B0BDE8F08F6FF09D
:100B90000200F9E7964A6168914200DD0126954915
:100BA00031F8205001EB8000B0F8028002F0D6FA54
:100BB0002069209000216069002ECDE921017DD0BF
:100BC0000020239001208DF890008DF894008A4633
:100BD0008DF8911020A8FFF7A2FF0021864800F0B1
:100BE00026F90121854800F022F9192000F062F968
:100BF000012000F0D9F9012227900421104600F0CD
:100C0000B8F97F4942F2302000F072FCE0694FF001
:100C1000080B01282FD04FF400494046002100F076
:100C200067FC0C20CDE91D0BA0691F901DA8FFF7E4
:100C300029FF052000F03EF900263746206A26905D
:100C400026A802F0D1FA0644269800286FD07F1C0F
:100C5000082FF3DBC6EBC906284600F0C9FAB1033A
:100C6000B1FBF0F0401CC0F34E01404600F040FCE8
:100C7000E06900287DD028464FF4804100F038FC20
:100C8000DFF87081A06908F1140802281ED812202C
:100C9000CDE91D0BD4E902613046FFF7DAFAA2690B
:100CA00058F82210FFF7DBFA3146FFF70AFB0F2155
:100CB000FFF745FB5349FFF704FB00E004E0FFF7B3
:100CC000E0FC00F500465DE001207AE724201D905D
:100CD00014201E9001214FF49C4000F0A8F8072139
:100CE000CDF810A0CDE905A11F2117918DF860A0C6
:100CF000CDF850A005210B22CDE91921CDF854A043
:100D0000CDE91B214FF40051CDE900A1C91002919A
:100D100089100126039150468DF820608DF82160DE
:100D20000790A069032803D0042804D005E053E00D
:100D30004FF4306701E040F655176846139700F00E
:100D4000CDF81DA81F96FFF79DFE052000F0B2F814
:100D5000206A269026A802F047FAA0F50040FFF787
:100D60008BFC4FF07F51FFF7ACFAA26958F82210C4
:100D700000E022E0FFF773FAFFF783FC00F500467E
:100D8000269848B3A0691F901DA8FFF77BFE052099
:100D900000F090F8206A269026A802F025FA2699FD
:100DA000D1B1B103A0F50040A1F1005191FBF0F0E9
:100DB000C0F30E01284600F09BFB2798400704D49F
:100DC00000220421012000F0D4F8002142F230205A
:100DD00000F08EFB0020D7E60020FFF78DFE0021FB
:100DE00042F2302000F084FB6FF00900CCE60000F6
:100DF0000050C34BC83C0008E0FF3900E000110080
:100E0000AFA587DE110E813F70B504464FF4005543
:100E1000284600F0EDF9012C06D020F0800128468C
:100E2000BDE8704000F064BB40F08001F7E770B5AA
:100E300004464FF400550E46284600F0D9F924F038
:100E40002001012E4FEA846211D0002A02DA40F01C
:100E500020000C46210303D540F4002024F4002494
:100E6000A04301462846BDE8704000F041BB002A7F
:100E700002DA20F020000C46210303D520F40020E4
:100E800024F400242043ECE740EA810142F2F02000
:100E900000F02EBB00221021014800F075BD0000BB
:100EA0000008014001221021014800F06DBD000042
:100EB000000801400A2002F023BE02680021012A36
:100EC00000D111034268012A01D141F00101007AE9
:100ED00041EA400142F2100000F00ABB10B504469E
:100EE0001030FFF7EAFF04F1500000F009F8204647
:100EF00000F090FA04F11C00BDE8104000F0A8BA20
:100F000010B504000BD060696FF00101032804D311
:100F10000B2802D8A069052804D9084610BD6FF037
:100F2000020010BD42F2FC00216800F0E1FA6168A5
:100F3000E06841EA4011207C012801D141F0100114
:100F400042F2F00000F0D4FAD4E90512002002F0D9
:100F500027F9002010BD10B500F0B4F9C820FFF744
:100F6000A9FF00F0B7F9BDE810404FF4FA70FFF7A1
:100F7000A1BF70B516460D4643F20804012800D102
:100F8000241D204600F034F9012E06D0A843014666
:100F90002046BDE8704000F0ABBA2843F7E70146B1
:100FA00043F2040000F0A4BA20B143F20C0000BFE9
:100FB00000F01EB943F20800FAE7000010B50C4635
:100FC00040B143F2140000BF00F012F9204000D0FD
:100FD000012010BD43F21000F6E7000070B59CB090
:100FE000702222496846FFF7BEF821480024C460F9
:100FF000446184610470FFF755FF00254FEA0D0638
:1010000006EBC500416836F8350000F071FA6D1C3A
:101010000E2DF5D340F2044000F0EAF8014645F207
:1010200001520120134D91420AD0A1F5AA42023A81
:1010300006D0B1F5AA4F05D00FA002F07FF8FEE769
:10104000287000E02C7019A002F078F8287808B118
:101050001AA100E01AA11BA002F070F801230222DD
:10106000002120A002F06AF81CB070BD483C0008C6
:1010700020000020000000204348495049442072CD
:10108000656164206572726F723A30782530347809
:101090002E20414435393430206973206E6F74201E
:1010A00070726573656E743F0A000000546869735E
:1010B00020414435393478210A00000053320000C1
:1010C000533100004E6F74653A2043757272656E3D
:1010D000742053696C69636F6E2069732025730AED
:1010E000000000004144353934304C4942205665F7
:1010F0007273696F6E3A7625642E25642E25640A14
:101100000000000070B504464FF40055284600F07A
:101110006FF820F02001207808B941F0200128461E
:1011200000F0E6F94FF40655284600F061F8014654
:101130006078012801D141F00101A078012801D196
:1011400041F01001E078012801D141F0040120793B
:10115000012801D141F02001607A012801D141F438
:101160008071A07A012801D141F00201E07A0128C2
:1011700001D141F00801207B012801D141F040015B
:10118000284600F0B5F9A079002100B90221607964
:1011900008B941F00101E079012801D141F00401D1
:1011A000BDE8704042F2500000F0A2B901460020B4
:1011B00007291BD2DFE801F004070A0D10131600FF
:1011C00042F2740010E04FF402500DE042F284004D
:1011D0000AE042F2780007E042F27C0004E042F2CA
:1011E000C81001E04FF4075000F002B8704700004B
:1011F00038B50E4D2978012903D0BDE8384000F0FC
:10120000E3B80446694600F083F840B1204600F098
:10121000DBF805460146204600F092F804E0286914
:10122000009950F82100050A284638BD200000200A
:101230001CB5010A8DF800108DF80100022201A9E9
:10124000684600F02DF8BDF8040040BA1CBD1CB57E
:10125000010E8DF80010010C8DF80110010A8DF8B7
:1012600002108DF80300042201A9684600F018F866
:10127000BDF804009DF8061040BA000440EA0120C1
:101280009DF8071008431CBD1CB501228DF8000015
:1012900001A9684600F004F89DF804001CBD000098
:1012A00008B54FF0FF33009393B20A460146044855
:1012B00000F096FFBDE80840012002F021BC0000CC
:1012C0008000002000220421014800F05DBB0000E6
:1012D0000008014001220421014800F055BB000034
:1012E00000080140094910B54B69CA684C681344AD
:1012F0009C4206D98B6843F82200C868401CC8602D
:1013000010BD6FF00300886110BD000020000020B8
:1013100030B50A4AC0F3870400201369D26807E099
:1013200013F82050A54202D10860002030BD401CB7
:101330008242F5D86FF0060030BD0000200000208A
:101340000C4A10B5D4685369234454689C420DD9A3
:10135000136980081B1F136118701069036861F31B
:101360001F2303605069401C506110BD6FF00300E3
:10137000906110BD20000020F8B5124F0C460646C3
:10138000B0F5085F03D36FF00400B861F8BD69469B
:10139000FFF7BEFFC6F3860558B121463046FFF77A
:1013A000CFFF00BF65F31F6444F00040FFF79AFFD2
:1013B000F8BD3869009950F8212064F31F2240F8E5
:1013C0002120EFE72000002010B50446FFF762FD62
:1013D0002020FFF759FF2046FFF72AFFFFF762FDA5
:1013E000FFF758FD6D20FFF74FFF0020FFF74CFF80
:1013F00042F21400A4F5805484424FF0000002D859
:10140000FFF725FF01E0FFF713FF0446FFF74AFD52
:10141000204610BD10B50446016842F2501000F09D
:1014200067F842F25810616800F062F842F2541016
:10143000A16800F05DF842F25C10E16800F058F835
:10144000BDE810404FF4803142F20C0000F050B87B
:1014500010B50446006802280BD003281CD042F2C5
:101460004800216B00F044F821790020012930D098
:1014700030E042F23000216A00F03AF842F23C00DB
:10148000616A00F035F842F23800A16A00F030F8E5
:1014900042F23400E16AE5E742F21800A16800F088
:1014A00027F842F21C00E16800F022F842F2200026
:1014B000216900F01DF842F22800616900F018F877
:1014C00042F22400A16900F013F842F22C00E16915
:1014D000C8E720206179012901D140F0100021687E
:1014E000BDE8104040EA410142F21400AFF3008031
:1014F00070B5154A1278012A1AD005460C46FFF736
:10150000C9FC2020FFF7C0FE2846FFF791FEFFF739
:10151000C9FCFFF7BFFC2D20FFF7B6FE42F2140016
:10152000A5F58055854207D82046FFF790FE06E0D6
:10153000BDE87040FFF720BFA0B2FFF779FEBDE81D
:101540007040FFF7AFBC00002000002010B5FFF78F
:1015500002FDFFF743FD4FF48060FFF749FE0446AC
:10156000014607A001F0EAFDA4F58240443801D00D
:101570000CA000E012A0BDE8104001F0DFBD0000AB
:10158000526561642041444949442072656769732A
:101590007465722C20676F743A2030782530346C73
:1015A000780A00005265616420726567697374652A
:1015B000722074657374206661696C65642E0A001C
:1015C0005265616420726567697374657220746521
:1015D000737420706173730A00000000FEE77047A7
:1015E00002490120087000F0D3B80000010000207B
:1015F00072B602A001F0A2FDFBE700006572726FF7
:10160000722121210D0A000010B590F8211000224E
:10161000022905D00421816380F82020012010BD1B
:1016200001680B6823F00E030B6001680B6823F060
:1016300001030B6090F84030C46B012101FA03F301
:10164000636080F8211080F82020104610BD000053
:1016500010B590F821100024022903D004218163E1
:1016600001243DE001680A6822F00E020A60016868
:101670000A6822F001020A601A4A0168914201D107
:10168000012121E0174A1432914201D110211BE0BF
:10169000144A2832914201D1891515E0114A3C3291
:1016A000914201D189140FE00E4A5032914202D189
:1016B0004FF4803108E00B4A6432914202D14FF47A
:1016C000801101E04FF08071064A083A5160012113
:1016D00080F82110002180F82010416B01B188476B
:1016E000204610BD0800024030B528B308C8134991
:1016F00014221944B1FBF2F18900C16310498163DE
:10170000022141771A6843F6F0718A43D0E9001448
:101710002143D0E902452C43214304692143446914
:10172000214384692143114319600021416301224F
:1017300042770177084630BD012030BDF8FFFDBF7C
:101740000000024070B5044600F024F90546601C14
:1017500002D004480078044400F01CF9401BA04269
:10176000FAD370BD1000002010B5012805D103A0E8
:1017700001F0E4FC05490120086010BD5041302013
:10178000494E544552525550540000001404014033
:10179000044910B50A68024202D00860FFF7E4FF6E
:1017A00010BD0000140401402DE9F84FDFF8B89196
:1017B0000024A9F1040B23460F2709F1040AABF119
:1017C000040EC9E00125A5402A40AA427DD1674EFA
:1017D000D1F804C0ACEB0608B44532D014DCBCF13F
:1017E000030F3AD009DCBCF1000F2AD0BCF1010F85
:1017F0001CD0BCF1020F31D11DE0BCF1110F17D08C
:10180000BCF1120F2AD119E0B8F5881F19D006DCF7
:10181000B8F5803F15D0B8F5801F1FD111E0B8F59D
:10182000001F0ED0B8F5041F18D10AE0CB6815E0F0
:10183000CB681B1D12E0CB6808330FE0CB680C337C
:101840000CE08B682BB1012B4FF0080303D04561EE
:1018500004E0042302E0056100E00023FF2A01D830
:10186000064601E000F104064FEA840501D9A5F11E
:101870002005D6F8008007FA05FC28EA0C0803FAD0
:1018800005F548EA0508C6F800804D68ED0062D508
:10189000374DAE6946F00106AE61AD6924F003062E
:1018A00005F001050095334D06EB050CDCF80850FA
:1018B000A607360F07FA06F825EA0805DFF8B8800C
:1018C000404503D14FF0000817E044E0DFF8AC805A
:1018D000404502D14FF001080FE0DFF8A4804045F9
:1018E00002D14FF0020808E0DFF89880404502D1AD
:1018F0004FF0030801E04FF0040808FA06F848EA40
:101900000508CCF808804D68D9F80060ED024D4616
:1019100001D5164300E096432E604D68DAF800606A
:10192000AD02554601D5164300E096432E604D6842
:10193000DBF80060AD035D4601D5164300E0964339
:101940002E604D68DEF80060ED03754601D5164344
:1019500000E096432E60641C0D682A46E5407FF443
:1019600031AFBDE8F88F00000804014000001110FD
:10197000001002400000014000080140000C01403E
:1019800000100140001401400AB1016170470904D0
:10199000FBE700000148806870470000100000204D
:1019A000024881680278114481607047100000206D
:1019B000074810B5016841F010010160032000F0F4
:1019C00079F8032000F006F800F024F8002010BD9C
:1019D0000020024070B50D4D04464FF47A7128780E
:1019E000B1FBF0F00A490968B1FBF0F000F0EFFC40
:1019F00048B9102C07D200222146501E00F03AF8B8
:101A000000206C6070BD012070BD0000100000203F
:101A10001C0000200E4808B5816941F00101816178
:101A2000816901F001010091C16941F08051C161FA
:101A3000C06900F080500090052000F03BF8054898
:101A4000416821F0E06141F00071416008BD000093
:101A50000010024000000140002809DB00F01F02D6
:101A6000012191404009800000F1E020C0F8001100
:101A700070470000F0B40E4B1B680C46C3F3022302
:101A8000C3F10705042D00D90425191D072901D22A
:101A9000002300E0DB1E012606FA05F1491E214065
:101AA00099409E40761E16403143F0BC01F0C2BB07
:101AB0000CED00E0064900F0070208684FF6FF034E
:101AC000184040EA0220034A1043086070470000B3
:101AD0000CED00E00000FA052DE9F0470F46050087
:101AE00061D0434E306800F00700B84209D2306838
:101AF00020F0070038433060306800F00700B8423B
:101B000051D128683B4C810712D5400703D5606846
:101B100040F4E06060602878000703D5606840F416
:101B2000605060606068A96820F0F0000843606061
:101B30002878C00728D06868012810D021680228BA
:101B400010D0890700292EDA616821F003010143D2
:101B50006160FFF71FFF804641F288390DE0216880
:101B60008903EFE78901EDE7FFF714FFA0EB080118
:101B7000494502D90320BDE8F0876068696800F034
:101B80000C00B0EB810FEFD1306800F00700B842D5
:101B90000BD9306820F0070038433060306800F01F
:101BA0000700B84201D00120E5E72878400705D5B5
:101BB0006068E96820F4E060084360602878000706
:101BC00006D56068296920F4605040EAC100606071
:101BD00000F038F86168084AC1F30311515CC8404D
:101BE0000649086006480068FFF7F4FE0020C2E7D7
:101BF0000020024000100240EE3D00081C000020C2
:101C0000140000200448054900684968044AC1F3EB
:101C10000221515CC84070471C00002000100240A7
:101C2000FE3D00080448054900684968044AC1F3BC
:101C3000C221515CC84070471C00002000100240C7
:101C4000FE3D00080E4A51680E4801F00C03042BBB
:101C500011D0082B0FD10C48C1F38343C903C05CDA
:101C60000AD55168084AC1F34041921E515C054AA9
:101C70005043B0FBF1F070470449484370470000FF
:101C80000010024000127A00DE3D000800093D000D
:101C90002DE9F84F040070D02078C04DC00749D01E
:101CA0006868C0F38100012807D06868C0F381002C
:101CB000022809D16868C00306D52868800339D591
:101CC00060680028E7D035E06068B0F5803F0BD051
:101CD00010B1B0F5A02F11D0286820F48030286012
:101CE000286820F4802002E0286840F480302860D2
:101CF000606890B1FFF74EFE06460AE0286840F49F
:101D000080202860F0E700BFFFF744FE801B6428B6
:101D100073D828688003F7D50CE0FFF73BFE064632
:101D200005E000BFFFF736FE801B6428F0D8286866
:101D30008003F7D420789A4E80074FF001094FF0C6
:101D4000000839D5686810F00C0F07D06868C0F338
:101D50008100022809D16868C00306D4286880077A
:101D600014D52069012808D110E02069B0B1C6F867
:101D70000090FFF70FFE074605E00AE1FFF70AFEB5
:101D8000C01B0228C4D828688007F7D52868616975
:101D900020F0F80040EAC10028600DE0C6F800809D
:101DA000FFF7F8FD074604E0FFF7F4FDC01B02282B
:101DB00023D828688007F7D4207800072CD57948E5
:101DC000A169D9B1C0F80090FFF7E4FD074604E02F
:101DD000FFF7E0FDC01B02280FD8686A8007F7D51F
:101DE00071484FF4FA510068B0FBF1F0009000BF69
:101DF0000098411E0091FAD20EE080E0C0F8008009
:101E0000FFF7C8FD074604E0FFF7C4FDC01B02282A
:101E100075D8686A8007F7D42078400760D5E869EC
:101E20000027C00008D4E86940F08050E861E86904
:101E3000012700F0805000905C480168C90513D468
:101E40000168834641F480710160FFF7A3FD82467B
:101E500006E000BFFFF79EFDA0EB0A0064284ED805
:101E6000DBF80000C005F5D5E06801280AD008B10C
:101E7000052813D0286A20F001002862286A20F083
:101E8000040002E0286A40F001002862E06841F2A4
:101E9000883B98B1FFF77EFD82460BE0286A40F050
:101EA00004002862EEE700BFFFF774FDA0EB0A0113
:101EB00059455AD8286A8007F6D50CE0FFF76AFD25
:101EC000824605E0FFF766FDA0EB0A0159454CD8B4
:101ED000286A8007F6D41FB1E86920F08050E861D5
:101EE000E06988B36968C1F38101022944D00228FE
:101EF000C6F8608004D0FFF74DFD044638E034E0BA
:101F0000FFF748FD074604E0FFF744FDC01B022829
:101F10002BD828688001F7D4206AB0F5803F05D11E
:101F20006868A16820F4003008436860D4E90801BB
:101F30000843696821F4741108436860C6F860902A
:101F4000FFF728FD044606E025E000BFFFF722FD6D
:101F5000001B022809D828688001F7D51BE000BFC4
:101F6000FFF718FD001B022802D90320BDE8F88FF7
:101F700028688001F4D40EE00128F7D06868226A4E
:101F800000F48031914204D1616A00F470108842FB
:101F900001D00120EAE70020E8E70000001002403D
:101FA00000004242800442421C00002000700040B9
:101FB0007047000038B50446006842688168C9432C
:101FC0004B0606D5CB0704D1D3435B0601D4216C65
:101FD00005E08B0708D4D3431B0605D4616C01B020
:101FE0002046BDE8304008478B0601D54B0646D455
:101FF000D3439B0643D44B060AD494F85130032BA9
:102000003ED0636D43F004036365C3688368009347
:10201000890609D4616D41F0010161658168009113
:10202000016821F040010160606D002827D0206820
:10203000416821F0E0014160012084F851009007DF
:1020400022D02068416821F003014160104DE06C0E
:1020500040B14563E06CFFF7FBFA18B1606D40F0EA
:1020600040006065A06C002809D04563A06CFFF7B4
:10207000EFFA002803D0606D40F04000606538BD85
:10208000C1688068009038BD2046FFF791FF38BDD9
:10209000612C000870B5040009D0606A002540B1C9
:1020A00025616561A56294F8510040B10CE0012002
:1020B00070BD6068B0F5827FF4D0E561F2E784F826
:1020C0005050204600F040F8022084F8510020686B
:1020D000016821F040010160A088218900F482702C
:1020E00001F404410843A18901F400610843217C03
:1020F00001F002010843217D01F001010843218B19
:1021000001F400710843217F01F03801084394F87D
:10211000201001F080010843218D01F40051084393
:1021200021680860A069042101EA10402168486024
:102130002068C16921F40061C1616565012084F8EE
:102140005100002070BD000030B585B0002400941F
:102150000194029403940068194988422ED11948C9
:10216000816941F480518161816901F48051049158
:10217000816941F0040181618069134D00F0040020
:102180000490A02000900220019003200390694653
:102190002846FFF709FB4020CDE9000469462846A0
:1021A0000294FFF701FB002202212320FFF762FCCB
:1021B0002320FFF751FC05A000F0C0FF05B030BDA3
:1021C00000300140001002400008014048414C5FCF
:1021D0005350495F4D7370496E69740D0A000000D9
:1021E0002DE9FF4F81B0044690F8500000260E9F65
:1021F0001D4693464FF0010901280FD04FF0010A08
:1022000084F850A0FFF7C6FB804694F8510061683F
:1022100001280DD0B1F5827F08D103E0022005B07E
:10222000BDE8F08FA16809B9042801D00226C9E0F1
:102230000298002865D0BBF1000FFBD0002DF9D02B
:1022400094F85100042802D0052084F851000020A1
:102250006065C4F838B0E587A58702992163E586F3
:10226000A5862064606420680168490603D401687B
:1022700041F040010160E068B0F5006F606803D094
:10228000F0B3012D47D081E008B1012D3CD1206B86
:1022900021680088C860206B801C2063E08E401E8F
:1022A000E08631E02068816889070FD5E18E69B149
:1022B000B9F1010F0AD1216B0988C160206B801C24
:1022C0002063E08E401EE0864FF0000920688168A0
:1022D000C9070CD0E18F51B1C068A16B0880A06B19
:1022E000801CA063E08F401EE0874FF00109FFF7DC
:1022F00051FBA0EB0800B84206D3781C04D001E0E3
:1023000009E05BE003265BE0E08E0028CAD1E08FA5
:102310000028C7D140E0206B216800780873206B4B
:10232000401C2063E08E401EE0862FE0206881681C
:1023300089070FD5E18E69B1B9F1010F0AD1216B7F
:1023400009780173206B401C2063E08E401EE086FC
:102350004FF0000920688168C9070CD0E18F51B1A6
:10236000C068A16B0870A06B401CA063E08F401E8A
:10237000E0874FF00109FFF70DFBA0EB0800B84222
:1023800002D3781C02D0BAE7002FB8D0E08E002824
:10239000CCD1E08F0028C9D142463946204600F012
:1023A00067FC18B10126202060650BE0A06818B911
:1023B0002068C16880680090606D08B1012601E066
:1023C00084F851A0002084F85000304627E710B56B
:1023D000401EB0F1807F01D3012010BD4FF0E024FA
:1023E00060610F21601700F025FF0020A061072029
:1023F0002061002010BD000070B590F83C20012A3B
:1024000026D0012480F83C40022280F83D20036859
:102410005A689D6822F070060A6832435A600D4B74
:1024200002689A4208D0B2F1804F05D00A4B9A4216
:1024300002D00A4B9A4204D1496825F0800319431F
:10244000916080F83D40002180F83C10084670BD46
:10245000022070BD002C0140000400400008004034
:1024600010B5040003D094F83D0010B107E001203E
:1024700010BD002084F83C00204600F01FF8022028
:1024800084F83D00211D206800F08EFC012084F8B6
:10249000460084F83E0084F83F0084F8400084F849
:1024A000410084F8420084F8430084F8440084F832
:1024B000450084F83D00002010BD000008B500680C
:1024C0000649884208D10648C16941F00401C1614A
:1024D000C06900F00400009008BD00000008004042
:1024E0000010024070B5044690F83C000025012819
:1024F00017D0012684F83C60022084F83D00206853
:10250000826822F0770222F47F42826008685028B5
:1025100038D00DDC20284FD005DC90B3102811D125
:102520004AE0022070BD302846D040280AD13BE066
:1025300060282FD070280DD0B0F5805F03D0B0F5A3
:10254000005F12D0012584F83D60002084F83C0033
:10255000284670BDCB68D1E90121206800F05AFC03
:102560002068816841F0770109E0CB68D1E9012159
:10257000206800F04FFC2068816841F48041816050
:10258000E1E719E0CA684968206800F055FC50216D
:10259000206806E0CA684968206800F05EFC602197
:1025A000206800F041FCCEE7CA684968206800F066
:1025B00043FC40212068F4E7226801461046F0E71A
:1025C0007047704710F8411F40780843704700007B
:1025D000F8B5016804460868CA684B6910F00F0F27
:1025E0004FF0000559D003F0010602F4907737430D
:1025F00065D0C10705D0D10503D5616C41F001015B
:102600006164410705D5D90703D0616C41F002012F
:102610006164810705D5D90703D0616C41F00401DD
:102620006164010707D502F02001314303D0616CDA
:1026300041F008016164616C00293AD0800604D53C
:10264000900602D5204600F049FC20684069616C84
:10265000C0F38010090700D460B3204600F017FCD7
:1026600020684069400621D52068143050E8001FDA
:1026700021F0400140E80012002AF5D1E06BA8B13A
:102680006D494163E06BFEF7E3FF002811D0E06B7A
:10269000416B01B0BDE8F040084783060FD59306B3
:1026A0000DD52046BDE8F84000F018BC2046FFF7E5
:1026B00088FFF8BD2046FFF784FF6564F8BD266BF0
:1026C0002023012E7CD1C6067AD5D60678D5086897
:1026D0004868009048694FF00206400640D5E16B1B
:1026E000086840680004000CE8D0A28D8242E5D959
:1026F000E085886920282DD020680C3050E8001F24
:1027000021F4807140E80012002AF5D120681430CD
:1027100050E8001F21F0010140E80012002AF5D125
:102720002068143050E8001F21F0400140E80012FA
:10273000002AF5D184F84230256320680C3050E837
:10274000001F21F0100140E80012002AF5D1E06BD3
:10275000FEF75AFF6663A08DE18D401A81B22AE030
:10276000A08DE18D401A81B2E08D0028A6D000290D
:10277000A4D022680C3252E8000F20F4907042E896
:102780000007002FF5D12068143050E8002F22F008
:10279000010240E80027002FF5D184F8423025637C
:1027A00020680C3050E8002F22F0100240E800238F
:1027B000002BF5D166632046FFF702FFF8BDFFE767
:1027C00005062BD5150629D594F841002128F5D109
:1027D000A068B0F5805F01D12069B0B1206A411CCA
:1027E0002162216800784860E08C401E0004000CE3
:1027F000E084E3D12068C16821F08001C1602068D5
:10280000C16841F04001C160D8E7206A0088C0F388
:1028100008004860206A801C2062E5E74006CDD5AC
:102820005006CBD5CA68204622F04002CA6084F820
:10283000413000F024F9C1E77F2E000870B5040094
:1028400004D094F84100002510B106E0012070BDCD
:1028500084F84050204600F023F8242084F84100FA
:102860002068C16821F40051C160204600F098FB47
:102870002068016921F4904101612068416921F0DB
:102880002A0141612068C16841F40051C16065645A
:10289000202084F8410084F842006563002070BD68
:1028A00030B585B00024009401940294039400682C
:1028B000184988422CD11848816941F480418161CE
:1028C000816901F480410491816941F004018161D1
:1028D0008069124D00F0040004904FF400700090E5
:1028E000022001900320039069462846FEF75CFF12
:1028F0002815CDE90004694628460294FEF754FFE6
:10290000032211462520FFF7B5F82520FFF7A4F88C
:1029100005B030BD00380140001002400008014001
:1029200090F84230202B01D00220704721B11AB11B
:102930000023036300F090BB0120704770B500686E
:102940001E4988420CD11E4C2088010408D41D4920
:1029500042044FF0000509781FD50A2901D02580CF
:1029600070BD40F4004020800104F9D5C6B216A025
:1029700000F0E4FB19494FF47A73324601F1C800C4
:1029800000F030F81548C83000680168C9434906AE
:10299000FBD413A000F0D2FBE1E70D2909D0C0F36E
:1029A0000D020E4B401C80B299542080C728D6D807
:1029B00070BD40F48040208070BD000000380140B0
:1029C0000A000020080000200D0AC4FAB7A2CBCDEF
:1029D000B5C4CFFBCFA2CEAA3A0D0A002001002039
:1029E0000D0A00002DE9F843044690F841001F4607
:1029F00016460D46202802D00220BDE8F8837DB19E
:102A000076B100206064212084F84100FEF7C2FF07
:102A1000A6848046E684A068B0F5805F02D003E01B
:102A20000120EAE7206910B12E4600250EE00026BD
:102A30000CE08021204600F02AFBA0B9AEB116F8C8
:102A4000010B21684860E08C401EE084E08C434626
:102A50004FF0000200970028EBD14FF040012046D4
:102A600000F015FB30B10320C7E735F8020BC0F3C7
:102A70000800E6E7202084F841000020BDE7704709
:102A8000FEE70000104808B5416941F001014161CD
:102A900040690E4900F0010000900D4801604FF4BC
:102AA00080414160402181608021C160002101613D
:102AB00041618161C161FEF717FE002803D0BDE8C6
:102AC0000840FEF795BD08BD001002400800024016
:102AD0003C000020F0B585B000241C48009401940F
:102AE00002940394816941F020018161816901F0C0
:102AF00020010491816941F0040181618069144FD2
:102B000000F004000490012214213846FEF73CFF37
:102B100010480125CDE90050022669460296384644
:102B2000FEF742FE1420CDE90005CDE902466946D4
:102B30003846FEF739FE032202210620FEF79AFFEF
:102B40000620FEF789FF05B0F0BD0000001002402E
:102B50000008014000002110104810B50E49016026
:102B60004FF48271416000218160C1604FF40072B6
:102B70000161C0E905121022C0E9072141628162AA
:102B80000A21C162FFF786FA002803D0BDE8104091
:102B9000FEF72EBD10BD0000003001408000002077
:102BA00010B586B000241748009401940294039451
:102BB00004941349059401604721C0E901144FF6BC
:102BC000FF71C0E903148461FFF74AFC08B1FEF706
:102BD0000FFD4FF48050009069460A48FFF782FCD1
:102BE00008B1FEF705FD049404A906480594FFF713
:102BF00003FC002801D0FEF7FBFC06B010BD00006E
:102C000000080040D80000200E4810B50C490160B3
:102C10004FF4E1314160002181600C22C160C0E9C4
:102C200004128161C161FFF709FE08B1FEF7E0FC03
:102C3000BDE81040012204490248FFF771BE0000C0
:102C400000380140E801002008000020FEE7FEE710
:102C5000704700000148FFF7ADB900008000002078
:102C600010B5406A0021C187C186FFF7A1F910BDE8
:102C700038B50B46009204460022802100F008F887
:102C8000002804D0606D40F020006065032038BD4E
:102C90002DE9F8431E46914688460446089DFEF7F6
:102CA00079FE401B351AFEF775FE07462548006879
:102CB000C0F3CB30684338E0701C37D0FEF76AFEB3
:102CC000C01BA84203D215B1009860B32CE0206865
:102CD000416821F0E00141606068B0F5827F0BD16E
:102CE000A068B0F5004F02D0B0F5806F04D1206825
:102CF000016821F040010160A06AB0F5005F09D1D0
:102D00002068016821F4005101602068016841F4E5
:102D100000510160012084F85100002084F8500027
:102D20000320BDE8F8830025401E009020688168DC
:102D300038EA010004D000214945BDD10020F0E768
:102D40000121F9E71C0000207047FEF729BE30B5CD
:102D50008FB028216846FDF71FFA14210AA8FDF755
:102D60001BFA01210804CDE9001000240294022579
:102D70000491CDE907504FF4E01009906846FEF742
:102D800087FF60B90F20CDE90A056802CDE90C4044
:102D900002210AA80E94FEF79FFE002801D0FEF73C
:102DA00027FC0FB030BD7047F0B50268164B174CCA
:102DB000174D4FF08047984205D0B84203D0A0424B
:102DC00001D0A84203D122F070064A6832439842EB
:102DD00005D0B84203D0A04201D0A84203D122F4CA
:102DE0004074CA6822434C6922F080022243026088
:102DF0008A68C2620A688262984201D109690163E5
:102E000001214161F0BD0000002C014000040040A0
:102E10000008004010B5846842EA032224F47F448D
:102E20000A432243826010BD826822F070020A4386
:102E300042F007018160704710B5036A046A24F00C
:102E400001040462846924F0F00444EA021423F0CB
:102E50000A020A438461026210BD10B5036A046A63
:102E600024F010040462846923F0A00324F4704465
:102E700044EA023243EA01118261016210BD10B5D9
:102E8000406A0021C185C184FFF79BFB10BD01682A
:102E90000C3151E8002F22F4907241E80023002BFE
:102EA000F5D10168143151E8002F22F0010241E808
:102EB0000023002BF5D1016B012909D101680C31E8
:102EC00051E8002F22F0100241E80023002BF5D139
:102ED000202180F8421000210163704708B590F866
:102EE0004210222901D0022008BD82684FF480538D
:102EF0009A4201D1016921B1816A9A421BD04AB13B
:102F00000AE00268816A5268C2F308020A80816A94
:102F1000891C08E0026972B10268526802F07F02FF
:102F20000A70816A491C8162C18D491E0904090C1D
:102F3000C18503D01BE002685268F1E70168CA68E6
:102F400022F02002CA600168CA6822F48072CA6056
:102F500001684A6922F001024A61202180F842108A
:102F600000214163026B012A03D0FFF7E7FC002038
:102F700008BD016301680C3151E8002F22F01002F6
:102F800041E80023002BF5D101680A68D20602D57A
:102F90000A6849680091818DFFF712FBE7E700009E
:102FA00070B5044600680169E26821F4405111439C
:102FB00001612169A0680843616908432168CA6802
:102FC00041F20C639A430243CA6020684169A269D6
:102FD00021F44071114341611E492068884202D1A9
:102FE000FEF720FE01E0FEF70DFE00EBC00101EB55
:102FF0000012606864218000B2FBF0F3B3FBF1F3D0
:103000006FF018067343B2FBF0F5B2FBF0F605EB78
:103010008305322303EB0515B5FBF1F5B6FBF1F69D
:1030200005F0F00505EB0615B2FBF0F6B2FBF0F08B
:10303000B0FBF1F06FF01802504306EB800003EB99
:103040000010B0FBF1F0216800F00F002844886008
:1030500070BD00000038014081628285C285002178
:103060004164222180F84210016921B10168CA68D7
:1030700042F48072CA6001684A6942F001024A6102
:103080000068C16841F02001C160002070472DE94F
:10309000F041984617460E460446069D27E0681CF8
:1030A00025D02DB1FEF776FCA0EB0800A8421ED972
:1030B00020680C3050E8001F21F4D07140E8001265
:1030C000002AF5D12068143050E8001F21F00101DA
:1030D00040E80012002AF5D1202084F8410084F84D
:1030E0004200002084F840000320BDE8F081206801
:1030F000006836EA000004D00020B842CFD000209B
:10310000F3E70120F9E7000010B50948FFF760FA7E
:103110000748FFF75DFA0648FFF754FA2028FAD16E
:10312000012204490248FFF7FBFB0028F8D110BD3B
:10313000E801002008000020FEE700000FB4054B66
:1031400010B503A9044A029800F056F910BC5DF8C6
:1031500014FB00003D3B00080C0000201FB50120BF
:103160008DF802008DF801008DF805008DF8000043
:103170008DF808008DF8060000208DF80B008DF802
:103180000A008DF804008DF80C008DF809008DF808
:1031900003008DF807006846FDF7B4FF1FBD00006F
:1031A000FFB40B2911D2032902D3C90040310DE02D
:1031B0000C4E052A78CE8DE8780006D201EB81010D
:1031C0006B461944895CC90000E0F821114310B135
:1031D00042F2F40001E042F2F80004B0F0BCFEF765
:1031E00087B90000B83C000870B5044600250420EB
:1031F000FDF7D5FE0E4E01213046FDF718FE0120E9
:10320000FDF758FE04210120FDF7D8FE20B1012072
:10321000FDF7CCFF054605E02168481CEFD0491EAC
:103220002160ECD100213046FDF701FE284670BD3B
:10323000000101000907090E002804DB00F1E0206D
:1032400080F80014704700F00F0000F1E02080F8D3
:10325000141D704702E008C8121F08C1002AFAD1E5
:1032600070477047002001E001C1121F002AFBD106
:10327000704700002DE9FF5F82B00021DDE90430D6
:10328000020DDDF840B0034318D044F61050A2F20E
:10329000FF3242431514119801281FD0A5EB0B00F3
:1032A000401C5FEA000A4FF000064E4FDFF83891ED
:1032B000B046504615D5CAF1000413E01198012418
:1032C0004AA3012801D16FEA0B010298119AC0E9C3
:1032D0000031C0E9024206B0BDE8F09FCBF100002A
:1032E000DFE704460021404A491842EB0450CDE98B
:1032F000001012E0E00707D032463B464046494600
:10330000FDF7D0F88046894632463B4610461946BE
:10331000FDF7C8F806460F466410002CEAD1DDE937
:103320000401DDE90023BAF1000F06DAFDF7BAF86F
:1033300042464B46FDF7B6F805E0FDF725F9424653
:103340004B46FDF721F904460E460022284BFDF7B7
:10335000C9FA03D84FF0FF30014607E00022254BA1
:1033600020463146FCF7F7FFFDF7A4FA102409E0E8
:10337000002C0ADB0A220023FDF7C5F9039B30323B
:103380001A55641E50EA0102F2D1641C039AC4F17A
:1033900011031444119A012A03D0012208430DD1CC
:1033A0000AE0084304D000204FF0110B119072E79F
:1033B000A3EB0B056D1E0DE05B4504DD4FF0000235
:1033C00005F1010504E003DA4FF00002A5F1010563
:1033D000002AECD002981199C0E90231C0E90045F9
:1033E00079E70000000014400000F03F30000000CA
:1033F0000000F0430000E03F2DE9FF4F95B09A46F2
:10340000884606460025EEE1252877D10024274688
:10341000F94A0121039400E0044316F8013F203BE0
:1034200001FA03F01042F7D130782A2811D06FF05A
:103430002F033078A0F13002092A16D8039A44F0FD
:10344000020402EB820203EB42021044761C03905A
:10345000EFE758F8042B0392002A03DA504244F4B1
:103460000054039044F00204761C30782E2816D1C4
:1034700016F8010F44F004042A280DD06FF02F0233
:103480003078A0F13003092B09D807EB870302EB52
:103490004303C718761CF3E758F8047B761C307892
:1034A0006C280FD006DC4C2817D068280DD06A286D
:1034B00014D104E0742810D07A280FD10DE044F420
:1034C00000140AE044F4801401E044F440147278DB
:1034D000824202D104F58014761C761C307866286E
:1034E0000BD013DC582877D009DC002875D045288C
:1034F000F6D04628F4D047281AD193E118E0632883
:1035000035D0642879D0652812D18BE1702873D02A
:1035100008DC6728F1D069286FD06E280DD06F289D
:1035200006D1ACE073282CD0752874D0782853D0FD
:103530005246179990476D1C54E1C4F3025002287B
:1035400009D003280DD0D8F8001004280DD00D6044
:1035500008F1040846E1D8F80010EA17C1E9005262
:10356000F6E7D8F800100D80F2E70D70F0E718F8D4
:10357000041B8DF8001000208DF80100EB4601209F
:1035800003E058F804BB4FF0FF3061074FF0000133
:1035900002D40DE009F101018946B9420FDA8145F3
:1035A000F8DB1BF809100029F4D108E009F101014A
:1035B00089468142FADB1BF809100029F6D10398ED
:1035C0005346A0EB090721463846179A00F080FAC7
:1035D000284400EB090507E044E008E10DE01BF892
:1035E000010B524617999047B9F10109F7D253469A
:1035F00021463846179AF2E039E00A21C4F3025214
:103600004FF0000B0091022A06D058F8040BC117A6
:10361000032A09D00AE023E008F1070020F007029E
:10362000F2E80201904605E000B2C117042A01D178
:1036300040B2C117002906DA0A460021404261EB78
:1036400002012D2202E0220504D52B228DF8042050
:10365000012203E0E20701D02022F7E7914657E07C
:103660000A2100E010214FF0000B00910BE0102127
:103670004FF0000B44F004040827009103E00820F9
:103680004FF0000B0090C4F30252022A05D058F804
:10369000040B0021032A08D008E008F1070020F0FD
:1036A0000702F2E80201904603E080B2042A00D14A
:1036B000C0B24FF0000922072AD53278702A07D00D
:1036C000DDF800C08CF0100C5CEA0B0C05D00EE0AD
:1036D00040228DF80420012208E050EA010306D0C0
:1036E00030238DF804308DF8052002229146009B8E
:1036F00083F0080353EA0B030AD150EA010201D117
:10370000620705D530228DF804204FF001097F1E95
:103710003278582A04D039A20C920CAA02920BE0FB
:103720003BA2F9E75B46009AFCF7EDFF0C9B9B5C24
:10373000029A521E0292137050EA0102F2D10298CC
:1037400004A9081A00F1200B600702D524F4803484
:1037500000E001275F4502DDA7EB0B0000E0002041
:1037600000EB0B01009003984944401A0390E003DA
:1037700006D453462146179A039800F0A9F9054448
:10378000002706E001A85246C05D179990476D1CBE
:103790007F1C4F45F6DBE0030CD553462146179AB4
:1037A000039800F095F9054404E03020524617993B
:1037B00090476D1C0099481E00900029F5DC08E038
:1037C0000298029952460078491C02911799904735
:1037D0006D1CBBF10001ABF1010BF1DC5BE100F012
:1037E00065F90544761C307800287FF40DAE19B0D9
:1037F0002846BDE8F08F000009280100303132333F
:10380000343536373839616263646566000000001C
:103810003031323334353637383941424344454606
:1038200000000000600700D4062708F1070020F020
:103830000700F0E80223804603F0004C5FEA0C002A
:1038400001D097A009E0200501D596A005E0E0078A
:1038500001D095A001E0AFF24C001390307823F036
:10386000004365280CD006DC452809D046281DD029
:1038700047287FD13BE0662818D067287AD136E008
:103880000021112F01DB112000E0781CCDE900019F
:1038900004A90CA8FFF7EEFCDDE90D010C9A4FF02E
:1038A000000B07F10109109200914EE04FF000402B
:1038B0000097CDE9011004A90CA8FFF7DBFCDDE9B6
:1038C0000D020C9B0F994FF0000B91461093009244
:1038D00011B9791C00EB0109B7EB090003D4C0F161
:1038E000FF3B07F10109A9EB0700019042E0012F1E
:1038F00000DA01270021112F01DD112000E03846F8
:10390000CDE9000104A90CA8FFF7B4FCDDE90D0125
:103910000C9A00914FF0000BB946109221070FD47A
:10392000009A4A4503DA914601E0A9F10109B9F18B
:10393000010F05DD109AA9F10101515C3029F4D085
:10394000B84202DA10F1040F03DA0121CDE90110C7
:1039500010E0002803DC8344A9EB000102E0411CD5
:10396000494500DD8946A0EB0B00401C01904FF05B
:1039700000400290200705D40198484502DB4FF033
:10398000FF30019000208DF84B0002980DF14B079D
:10399000B0F1004F25D002200C902B200D90029802
:1039A00000280CDA404202902D200D9007E00A21F9
:1039B0000298FCF792FE3031029007F8011D0C9935
:1039C000481E0C900029F2DC02980028EFD1791EE5
:1039D0000D980870307800F0200040F0450007F89E
:1039E000020D11A8C01BC01D02901398007800B1F1
:1039F000012000EB0901019801EBE07102980144FC
:103A00000398401A401E0390E00306D45346214613
:103A1000179A039800F05CF805441398007818B1E1
:103A20005246179990476D1CE00323D55346214613
:103A3000179A039800F04CF805441BE0BBF1000F07
:103A400007DB0098584504DD1098179910F80B0013
:103A500001E0179930205246904701980BF1010B75
:103A6000401E05F10105019004D12E205246179900
:103A700090476D1CB9F10001A9F10109DEDC05E0F8
:103A800017F8010B5246179990476D1C0299481E72
:103A900002900029F4DC53462146179A03989EE6CB
:103AA0002D0000002B000000200000002DE9F04157
:103AB000044600251E461746880404D405E039460E
:103AC0002020B0476D1C641EF9D52846BDE8F08162
:103AD0002DE9F041044600251E469046C80301D555
:103AE000302700E02027880404D505E04146384609
:103AF000B0476D1C641EF9D52846BDE8F081000072
:103B00000D4900220B685A620A68136843F00103EA
:103B1000136009684A6A8242FCD3086A41F21112B2
:103B2000104207D1086A9210104203D1086820F0B1
:103B30000100086070470000D800002004490A68AE
:103B40005206FCD5024AC1B2121D11607047000036
:103B500000380140FDF72CFFFFF7F9F8FEF7BAFF38
:103B6000FEF790FFFFF750F8FEF7F6FFFFF718F8A3
:103B70000120FDF7E7FDFDF7E9FCFCF7DDFE0000A5
:103B8000FFFFFF7F00000081FFFFFF7F000000813B
:103B9000160000002C00000059000000B2000000D8
:103BA0000B01000015020000800200009B020000D3
:103BB00020030000790300002B04000035050000FD
:103BC00000000000050000000400000002000000EA
:103BD00000000000040000000800000010000000C9
:103BE00020000000400000008000000000010000F4
:103BF00000020000000400000008000000100000A7
:103C0000002000000040000001000000160000003D
:103C10002C00000059000000B20000000B01000061
:103C200015020000800200009B020000200300003B
:103C3000790300002B04000035050000020000009D
:103C4000040000000500000008090000C90200008F
:103C5000080C00006C200000F021000010000000A3
:103C600010040000C9020000280A0000090000003A
:103C70008C23000004010000040A000059480000E1
:103C8000040A00007BF20000000A00000980000026
:103C9000F02200000000000030220000AFA587DE07
:103CA000502200003F100000B02200003C20000025
:103CB00030220000A0A587DE0001020306030405F0
:103CC0000607070709090A00402244227022CC2275
:103CD0007422C8227822D4229822D0220000803F69
:103CE0000000C03F00000040000080400000104184
:103CF000C8000000E803000088130000102700003F
:103D0000204E0000409C000080380100007102003D
:103D100000000000000000000A0000001E0000007B
:103D20003200000064000000FF0FA5D43200000044
:103D300064000000C8000000E803000088130000D1
:103D400010270000204E0000409C00008038010039
:103D50000071020000000000FF7FC6A40000000008
:103D60006E000000E8030000D0070000B80B000060
:103D7000A00F000070170000401F00001027000077
:103D8000E02E0000803E0000204E0000C05D0000DC
:103D900030750000007D0000409C000080BB0000EA
:103DA00000FA0000084C010000770100A086010025
:103DB000C0D4010000F4010000710200A0FD020067
:103DC00000E8030000D007000000803F0000C03F73
:103DD000000000400000804000001041010202038A
:103DE0000405060708090A0B0C0D0E0F1010000041
:103DF000000000000000010203040607080900009B
:103E00000000010203040000283E0008000000201A
:103E10002000000054320008483E00082000002026
:103E200010060000643200080000000000000000DE
:103E30000000000000000000010000001000000071
:083E4000000000000024F40062
:04000005080000ED02
:00000001FF
