:020000040800F2
:10000000000F002005010008174400089D4100086A
:1000100015440008152D00080149000800000000E3
:100020000000000000000000000000001145000872
:10003000172D0008000000001944000813450008AF
:100040001F0100081F0100081F0100081F01000810
:100050001F0100081F0100081F010008192D0008DA
:100060001F0100081F0100081F0100081F010008F0
:100070001F0100081F0100081F0100081F010008E0
:100080001F0100081F0100081F0100081F010008D0
:100090001F0100081F0100081F0100081F010008C0
:1000A0001F0100081F0100081F0100081F010008B0
:1000B0001F0100081F0100081F0100081F010008A0
:1000C0001F0100081F0100081F0100081D4400084F
:1000D0001F010008D14800081F0100081F01000887
:1000E0001F0100081F0100081F010008DFF810D0E1
:1000F00000F0FEFC00480047595C0008AFF30080A8
:10010000000F00200648804706480047FEE7FEE74C
:10011000FEE7FEE7FEE7FEE7FEE7FEE7FEE7FEE7B7
:100120006F450008ED000008202A04DB203A00FAA1
:1001300002F1002070479140C2F1200320FA03F33E
:10014000194390407047202A04DB203A21FA02F03C
:100150000021704721FA02F3D040C2F12002914001
:1001600008431946704740EA01039B0703D009E0A2
:1001700008C9121F08C0042AFAD203E011F8013B93
:1001800000F8013B521EF9D27047D2B201E000F8EC
:10019000012B491EFBD270470022F6E710B513462B
:1001A0000A4604461946FFF7F0FF204610BDF0B49A
:1001B00080EA0102D40F4200B2EB410F02D20246A4
:1001C000084611464A0042D0C30DDDB2C1F3C75202
:1001D000AD1A202D35DAC1F3160141F4000204B145
:1001E0005242C5F1200602FA06F12A411044B3EB4F
:1001F000D05F23D0C4B1012DA0EBC35009DCF0BC0B
:100200004FF0004202EAC352DBB200F5000000F0FA
:100210004BBB400000F1807000EBC350A0F1807038
:1002200040EAD170490009E0490841EAC071A0EBF9
:10023000C35000F50000400800EBC350F0BC00F0D4
:100240002ABB6142012202EB4101001BF6E7F0BC30
:10025000704781F00041AAE780F00040A7E780EAFC
:10026000010210B502F00043400022D04A001FD026
:10027000010E01EB1261C0F35600C2F3560240F4C6
:10028000000042F40002A0FB022000047F391404A5
:1002900000D0401C50EA124001D44000491EC2B2B6
:1002A0000C0604EBD010401C4008802A02D003E06A
:1002B000002010BD20F00100002900DA00201843C2
:1002C00010BD30B480EA010202F0004530F0004277
:1002D00021F0004013D090B1C30DD40DC2F316012C
:1002E000C0F31600E41A41F4000140F400027D342A
:1002F000914201D3641C00E04900002C02DA30BCBA
:10030000002070474FF400000023914201D3891A66
:10031000034340084FEA4101F7D151B1914202D164
:100320004FF0004105E002D24FF0010101E06FF013
:10033000010103EBC450284430BC00F0ACBA4200C9
:1003400005D0C0F3C7525242914201DC00207047F1
:1003500000EBC15070472DE9FE4F804681EA030053
:10036000C00F0C46009021F0004123F00045B8EB8F
:100370000200A94105D24046214690461C460B4644
:10038000024623F00040104347D0270DC7F30A0070
:10039000C3F30A510290401A019040286BDAC3F36C
:1003A000130040F4801B0098924620B10023D2EB4A
:1003B000030A63EB0B0B01985946C0F1400250460B
:1003C000FFF7B2FE06460D4650465946019A00F028
:1003D00050FA10EB08006141002487EA115284EAC8
:1003E000E7731A4340D0009A62B3019A012A4FEA98
:1003F000075215DC001B61EB02014FF0004202EADC
:100400000752CDE90042001C41F5801132462B46CF
:1004100000F087FA03B0BDE8F08F40462146F9E7C7
:10042000001B61EB0201001C41F5801300185B41C9
:100430002018A2F5001747EB030140EAD570B61962
:100440006D4111E06D084FEA360645EAC0754FEA86
:100450000752001B61EB0201001C41F580114908A5
:100460004FEA30000019514132462B4603B0BDE837
:10047000F04F00F047BA0098012240000023D0EB73
:10048000020263EBE073009821464FEAE074B8EB98
:10049000000061EB0401E9E783F000435BE781F0D2
:1004A000004158E72DE9FE4F81EA030404F00044BF
:1004B00021F0004100944FF0000B23F0004350EA7C
:1004C00001045ED052EA03045BD0C3F30A54C1F3C3
:1004D0000A552C44A4F2F3340194A0FB0254C1F356
:1004E000130141F48011C3F3130343F4801301FBA0
:1004F000024400FB034E840A970A44EA815447EA07
:100500008357A4FB076802958D0A05FB07854FEA10
:10051000932C04FB0C542705029D4FEA065847EA2A
:100520001637B5EB08056EEB070C870E920E47EAFF
:10053000811742EA8312A7FB0201B6EB0B0164EBC1
:1005400000042B0D43EA0C335E1844EB1C50DA46D2
:100550005146E7FB0201C5F313044FEA0B3343EAAC
:1005600014534FEA0432019C43EA0603A4F10C043D
:100570000294009CCDE900B400F0D3F903B0BDE8CB
:10058000F08F00200146F9E72DE9F04D81EA0304E0
:1005900004F0004B21F0004514464FF0000A23F010
:1005A000004150EA050220D054EA01021DD0C5F3F3
:1005B0000A570246C5F31303C1F31300C1F30A56E9
:1005C00040F4801543F48013A7EB0608101BD646B1
:1005D00008F2FD3873EB050002D308F1010801E0D1
:1005E00092185B41B8F1000F03DA00200146BDE824
:1005F000F08D00204FF48011064684460EE0171B54
:1006000073EB050705D3121B63EB050306434CEAA6
:10061000010C49084FEA300092185B4150EA01078B
:10062000EDD152EA030012D082EA040083EA050108
:10063000084305D0101BAB4106D20122002306E07F
:1006400000224FF0004302E06FF0010253101AEB5A
:1006500006004CEB085110EB0A0041EB0B01BDE822
:10066000F04D00F04FB970B521F0004303430CD0BA
:10067000C1F30A550024D5EB040564EB0403D61737
:10068000AD1AB34102DB0020014670BD201841EBDA
:10069000025170BDC10F80EAE0700844CA0796237A
:1006A000002100F001B996230022114600F0FCB8A9
:1006B000F0B4CA17CB0F50405140C61841F10005A5
:1006C0004FEAC372314628004FF0960303D0B62399
:1006D000F0BC00F0E9B830460021F9E70EB5C10FD3
:1006E00080EAE0700844CA07002140F233438DE8F5
:1006F0000E000A460B4600F014F903B000BD0EB51B
:1007000040F2334102910021CDE900110A460B4627
:1007100000F007F903B000BD00F0004220F00040F7
:10072000C10DC0F3160040F400007F2901DA00205B
:100730007047962903DCC1F19601C84001E0963963
:100740008840002AF4D04042704720F00040C10D9C
:10075000C0F3160040F400007F2901DA0020704742
:10076000962903DCC1F19601C8407047963988404C
:10077000704700F0004230F000400AD0C10D01F592
:100780006071C0F3160042EA0151C20840071143EC
:10079000704700200146704701F0004330B421F05B
:1007A000004150EA010206D00A0DA2F56072C1F3C1
:1007B0001301002A02DC30BC00207047440F44EAD9
:1007C000C104C100E01830BC00EBC25000F063B8B7
:1007D000002801DBC0F10040002901DBC1F100412C
:1007E0008142704730B50B4601460020202201248B
:1007F00009E021FA02F59D4205D303FA02F5491BEF
:1008000004FA02F52844151EA2F10102F1DC30BD04
:100810002DE9F05F0546002092469B468846064635
:10082000814640241BE02846414647462246FFF7C2
:100830008AFC53465A46C01A914110D311461846B5
:100840002246FFF771FC2D1A67EB01084F4622463E
:1008500001200021FFF768FC17EB00094E41201E24
:10086000A4F10104DFDC484631462A464346BDE890
:10087000F09F202A06DBCB17203A41FA02F043EA28
:10088000E07306E041FA02F3D040C2F12002914049
:100890000843194670470029A8BF7047401C49000B
:1008A00008BF20F00100704710B4B0FA80FC00FAD5
:1008B0000CF050EA010404BF10BC704749B1CCF100
:1008C000200421FA04F411FA0CF118BF012121438C
:1008D0000843A3EB0C01CB1D4FEA00614FEA102047
:1008E00042BF002010BC704700EBC35010440029E9
:1008F000A4BF10BC7047401C490008BF20F0010095
:1009000010BC704710B5141E73F1000408DA401CC7
:1009100041F1000192185B411A4301D120F001001E
:1009200010BD2DE9F04D92469B4611B1B1FA81F20E
:1009300002E0B0FA80F220329046FFF7F5FB044661
:100940000F4640EA0A0041EA0B0153465A46084363
:1009500013D0114653EA010019D0C8F140025046A5
:10096000FFF7F1FB05460E46504659464246FFF753
:10097000DBFB084305D0012004E020463946BDE8F2
:10098000F08D0020054346EAE0762C4337430A9871
:100990006305E40AA0EB08000022FD0A44EA47547C
:1009A0000A3002D500200146E9E701051019694126
:1009B000DDE9084500196941BDE8F04DA2E72DE9E0
:1009C000F04D00231A461B1A8A4103DB0020014622
:1009D000BDE8F08DC1F30A52C1F3130141F4801553
:1009E0004FF0000BD10702D100186D41521E0027B5
:1009F000044640F2FF11384601EB620A3E4680464B
:100A0000024600204FF48011FFF79DFBC21971418F
:100A1000BB1846EB0100B4EB030C75EB000C04D3E0
:100A2000E41A65EB000517460E46241908F101008B
:100A30006D4180463428E3DDF91946EB0600091BB9
:100A4000A84103D24FF0FF32134601E000221346C3
:100A50001BEB070046EB0A51BDE8F04DFFF752BF14
:100A6000C1F30A52C1F3130140F2FF3341F4801184
:100A70009A4202DA00200146704740F233439A421C
:100A8000A2F2334202DC5242FFF75DBBFFF74CBBE0
:100A900030B5041E71F1000404DB4FF00044404205
:100AA00064EB0101141E73F1000405DB1C464FF0DA
:100AB0000043524263EB04038B4208BF824230BDC5
:100AC00030B5041E71F1000404DB4FF000444042D5
:100AD00064EB0101141E73F1000405DB1C464FF0AA
:100AE0000043524263EB0403994208BF904230BD79
:100AF000064C074D06E0E06840F0010394E807006B
:100B000098471034AC42F6D3FFF7F4FAD06A0008E5
:100B1000F06A000808B5684601F06CFE00980021F4
:100B2000144B41604FF4007181601049816210499B
:100B300081650421C0F8881010210A01C162C0E952
:100B40000C12022202648163012180F87010436755
:100B5000094B83676523C36780F88010C16380F801
:100B60006C200C22C0E9172108BD000000401C4683
:100B700000606A470000C8420050C34794B000F0CC
:100B800093FD00F0D5FD384803210D9109900890A0
:100B90004FF47A701090364E012434480A96CDE90D
:100BA0000B040220CDE90E4008A800F021F910B195
:100BB00030A003F0A7FE0321002000F0A3FA0121DA
:100BC000344800F072FA122011900820CDE9120486
:100BD00011A800F07DF80B20CDE902400020CDE9FE
:100BE00004048DF818408DF819008DF81C4002A8F7
:100BF00000F0D3F80122911E104600F063FD0120A1
:100C000000F040FA012000F09DF80421012000F0DE
:100C10007FFD0028F9D0042000F06AFD012000F0DB
:100C2000AFFF1D4905460868401C08609621B0FBCF
:100C3000F1F201FB12000028E7D1324601212846DB
:100C400000F052F8FFF795FD0F460446134A144B87
:100C5000FFF781FB0246CDE900213B4622462946AB
:100C600010A003F04FFED0E70024744B7B148E3F9E
:100C7000C3F5E83F414435393430205047412063C3
:100C8000616C6962726174696F6E206661696C651E
:100C9000642E00004000100004000020C3F5285C12
:100CA0008FC2F13F41444320436F64653A25642C71
:100CB00020646966662D766F6C743A20252E346642
:100CC0002C20766F6C743A252E3466200D0A0000B5
:100CD000D0E90012008941EA022141EA004142F2D2
:100CE000A81001F097BB000070B516460C46134DD6
:100CF000A0F50040FFF7CEFC052C12D2DFE804F08F
:100D0000110306090E004FF07F5108E04FF0FF314C
:100D100001E06FF00101FFF712FB02E00849FFF765
:100D2000D0FA3146FFF79BFA6FF00E01FFF707FB91
:100D30002946BDE87040FFF792BA0000110E813FCE
:100D40000000104170B504464FF40055284600F0ED
:100D500039FF012C06D020F480712846BDE8704090
:100D600001F058BB40F48071F7E710B504460188E4
:100D700042F2A80001F04EFB618842F2AC0001F0A3
:100D800049FBA18842F2B00001F044FBE188BDE8D4
:100D9000104042F2B40001F03DBB70B5044642F28F
:100DA0004405284600F00EFF00F08001E06808438B
:100DB000217C012901D140F01000617C012901D181
:100DC00040F04000616840EA0120216840EA0130BB
:100DD000A16840EA8131284601F01CFB207D0028F3
:100DE00005D0BDE870400121080400F05EB970BD77
:100DF0002DE9F04FA9B0040007D0A069042807D955
:100E00006FF0010029B0BDE8F08F6FF00200F9E744
:100E1000964A6168914200DD0126954931F82050DB
:100E200001EB8000B0F8028003F07CFD2069209087
:100E300000216069002ECDE921017DD000202390A2
:100E400001208DF890008DF894008A468DF891105D
:100E500020A8FFF7A2FF0021864800F026F9012113
:100E6000854800F022F9192000F0F4FA012000F082
:100E700045FC012227900421104600F023FC7F4905
:100E800042F2302001F0C6FAE0694FF0080B012869
:100E90002FD04FF400494046002101F0BBFA0C204E
:100EA000CDE91D0BA0691F901DA8FFF711FF0520BC
:100EB00000F0D0FA00263746206A269026A803F0D4
:100EC00077FD0644269800286FD07F1C082FF3DB9F
:100ED000C6EBC906284600F075FEB103B1FBF0F081
:100EE000401CC0F34E01404601F094FAE06900282E
:100EF0007DD028464FF4804101F08CFADFF87081F4
:100F0000A06908F1140802281ED81220CDE91D0B93
:100F1000D4E902613046FFF79CF9A26958F8221023
:100F2000FFF79DF93146FFF7CCF90F21FFF707FADC
:100F30005349FFF7C6F900E004E0FFF7EDFB00F5C9
:100F400000465DE001207AE724201D9014201E90C9
:100F500001214FF49C4000F0A8F80721CDF810A023
:100F6000CDE905A11F2117918DF860A0CDF850A003
:100F700005210B22CDE91921CDF854A0CDE91B2183
:100F80004FF40051CDE900A1C9100291891001264A
:100F9000039150468DF820608DF821600790A0697C
:100FA000032803D0042804D005E053E04FF4306751
:100FB00001E040F655176846139700F038FB1DA86E
:100FC0001F96FFF785FE052000F044FA206A269060
:100FD00026A803F0EDFCA0F50040FFF764FB4FF0FE
:100FE0007F51FFF76EF9A26958F8221000E022E065
:100FF000FFF735F9FFF790FB00F50046269848B358
:10100000A0691F901DA8FFF763FE052000F022FADB
:10101000206A269026A803F0CBFC2699D1B1B10313
:10102000A0F50040A1F1005191FBF0F0C0F30E01DA
:10103000284601F0EFF92798400704D40022042144
:10104000012000F03FFB002142F2302001F0E2F9E4
:101050000020D7E60020FFF775FE002142F2302085
:1010600001F0D8F96FF00900CCE600000050C34B46
:1010700030680008E0FF3900E0001100AFA587DE0E
:10108000110E813F70B504464FF40055284600F01C
:1010900099FD012C06D020F080012846BDE8704063
:1010A00001F0B8B940F08001F7E770B504464FF49D
:1010B00000550E46284600F085FD24F02001012E43
:1010C0004FEA846211D0002A02DA40F020000C4678
:1010D000210303D540F4002024F40024A04301465A
:1010E0002846BDE8704001F095B9002A02DA20F0E8
:1010F00020000C46210303D520F4002024F4002412
:101100002043ECE740EA810142F2F02001F082B98D
:1011100010B50446006800F00FF8606800F014F89D
:10112000A06800F00DF8E06800F012F82169BDE851
:101130001040142001F06EB90146002001F06AB998
:1011400001460C2001F066B90146042001F062B9A5
:101150000146082001F05EB92DE9F04105464FF443
:101160002166304600F02EFD0446E87C4CF614372C
:1011700040F60C2801280ED144F0040439464046BC
:1011800001F048F92146304601F044F9304600F0BC
:1011900019FD4005FAD5287C012814D144F0020439
:1011A0003946404601F036F92146304601F032F921
:1011B000304600F007FD8005FAD5687C012800D094
:1011C000002000F0E7F9A87C01280ED144F00104CA
:1011D0003946404601F01EF92146304601F01AF921
:1011E000304600F0EFFCC005FAD5287A297B00F0E4
:1011F0003F0001F00F0140EA81114FF4816001F0DE
:1012000009F90A2000F026F9D5E9000140EA810138
:1012100040F2144001F0FEF8E87C08B924F0040420
:10122000287C08B924F00204A87C08B924F0010441
:101230003946404601F0EEF821463046BDE8F0411F
:1012400001F0E8B82DE9F0439BB00E4604460025B6
:101250003422544909A80295FEF785FF514817AF7B
:101260003430002C0FC887E80F00356075D0002E91
:1012700073D0E3680B2B70D8A268022A6DD821695D
:1012800003296AD8D4F800C0022701204FF00409CE
:10129000BCF1050F5FD2DFE80CF0030D24633700CB
:1012A000606800EB80008000FFF7FDF9E169FEF760
:1012B000D6FF12E017A9606851F82210801C48433D
:1012C000401C00EB80008000FFF7EDF9E169FEF7BC
:1012D000C6FF4FF07C51FEF76AFFFFF736FA029027
:1012E00039E009AA616852F82320491C5143491C7E
:1012F000029120600298606002A92046FFF7A2FFD9
:10130000276002980F30EAE7207E0690A0680390DD
:10131000E0680490002516A903A800F021FB18B18D
:101320009DF85800401EC5B201A903A800F07CFB3F
:1013300020B19DF804002844401EC5B227606068B3
:1013400002A9284460602046FFF77CFFC4F80090A3
:101350006068401B6060029830601BB0BDE8F0839D
:10136000626992B1012A06D0022A02D0032A07D16B
:1013700012E0256000E0206002A92046FFF762FF2E
:101380000320206002981930A9E7607E08B1276029
:10139000F2E7C4F80090EFE720606068491C8840DD
:1013A0006060E9E7F8660008024900200870012043
:1013B000704700000100002000221021014801F0C8
:1013C00071BE00000008014001221021014801F017
:1013D00069BE00000008014070B5044642F24406B0
:1013E0000025304600F0EEFB616803290ED020F0A6
:1013F0008001304601F00EF8A08845EA00552068CB
:1014000045EA0011207A012806D007E040F080016B
:10141000304600F0FFFFF2E741F00101BDE8704007
:1014200042F2D00000F0F6BF10B50446FFF750FCC2
:1014300004F10C00FFF7B1FC04F12400FFF795FC68
:1014400004F12C00FFF7C8FF04F13800BDE810409C
:1014500000F0A9BD0A2004F0B5B910B542F21C1481
:101460000021204600F0D6FF2046BDE810400121B3
:1014700000F0D0BF70B5044642F2080500212846AE
:1014800000F0C8FF42F2D816304600F09BFB6168BE
:1014900000F03F0040EA4120A16840EA8111304657
:1014A00000F0B8FF208A010442F2E01000F0B2FF21
:1014B00021780020012900D1C802E16840EA4131C9
:1014C0002846BDE8704000F0A5BF0022012900D1E8
:1014D000CA0242EA403142F2080000F09BBF10B558
:1014E0004FF4085000F06EFB000C10BD70B50D46B7
:1014F000064603291FD2FFF75FFF202000F0AEFB56
:1015000042F26C0000F07EFBFFF75EFF00240FE06C
:10151000FFF752FF6D2000F0A1FB002000F09EFBC2
:10152000002000F07EFB46F82400FFF74DFF641C0E
:10153000AC42EDD370BDFFF73FFF5F2000F08EFBA4
:101540000024002000F08AFB641C062CF9D3002440
:10155000AD1E05E0002000F064FB46F82400641C8A
:10156000AC42F7D34FF04435284600F05AFB46F81A
:1015700024002846641C00F054FB46F82400BDE813
:101580007040FFF721BF000001480078704700005D
:10159000010000202DE9F04105464FF482663046F7
:1015A00000F010FBC0F34021C0F300220902C0B2DA
:1015B00041EA4224044344F02001304600F02AFF6F
:1015C00042F2BC07384600F0FDFA29464FF4216587
:1015D000012910D040F00401384600F01BFF2846D6
:1015E00000F0F0FA8005FAD524F020013046BDE87D
:1015F000F04100F00FBF20F00401384600F00AFF70
:10160000284600F0DFFA8005FAD5EDE702680021F0
:10161000012A00D111034268012A01D141F00101E0
:10162000007A41EA400142F2100000F0F3BE10B52A
:1016300004461030FFF7EAFF04F1500000F009F80B
:10164000204600F08DFC04F11C00BDE8104000F0C5
:1016500081BD10B504000BD060696FF00101032853
:1016600004D30B2802D8A069052804D9084610BD68
:101670006FF0020010BD42F2FC00216800F0CAFECB
:101680006168E06841EA4011207C012801D141F005
:10169000100142F2F00000F0BDFED4E90512002076
:1016A00003F062F9002010BD10B500F0F5FAC82073
:1016B000FFF7D0FE00F0F8FABDE810404FF4FA70E2
:1016C000FFF7C8BE70B516460D4643F20804012860
:1016D00000D1241D204600F075FA012E06D0A84343
:1016E00001462046BDE8704000F094BE2843F7E76D
:1016F000014643F2040000F08DBE000020B143F229
:101700000C0000BF00F05EBA43F20800FAE70000E8
:1017100010B50C4640B143F2140000BF00F052FA7D
:10172000204000D0012010BD43F21000F6E7000079
:1017300070B59CB0702222496846FEF714FD21481E
:101740000024C460446184610470FFF73DFE0025FD
:101750004FEA0D0606EBC500416836F8350000F08B
:1017600059FE6D1C0E2DF5D340F2044000F02AFA0C
:10177000014645F201520120134D91420AD0A1F5D4
:10178000AA42023A06D0B1F5AA4F05D00FA003F045
:10179000B9F8FEE7287000E02C7019A003F0B2F849
:1017A000287808B11AA100E01AA11BA003F0AAF83A
:1017B00001230222002120A003F0A4F81CB070BD78
:1017C000B0670008F00000200000002043484950A6
:1017D00049442072656164206572726F723A307894
:1017E000253034782E204144353934302069732037
:1017F0006E6F742070726573656E743F0A0000002E
:101800005468697320414435393478210A00000056
:1018100053320000533100004E6F74653A20437517
:101820007272656E742053696C69636F6E206973A0
:101830002025730A000000004144353934304C49FA
:10184000422056657273696F6E3A7625642E256460
:101850002E25640A0000000010B504460020217EF9
:1018600001B90220617E09B940F001002169042913
:1018700017D040EAC100E16840EA4110A16840EA9F
:101880008120616840EA4131206868B142F2E80095
:1018900000F0C0FD616942F2E000BDE8104000F0D8
:1018A000B9BD40F00400E6E742F2EC0000F0B2FD02
:1018B00042F2E4006169F0E701F03F01C0F30B0080
:1018C00040EA013142F2201000F0A4BD01F03F01D6
:1018D000C0F30B0040EA013142F22C1000F09ABD37
:1018E00010B504464068A168800140EA0110E16833
:1018F00040EAC100616940EA8101207E08B941F0F7
:101900000101607E08B941F00201206880B142F215
:10191000341000F07FFD217F608BFFF7D7FF206937
:1019200040F0200142F23010BDE8104000F072BDDE
:1019300042F2281000F06EFD217F608BFFF7BCFFA4
:10194000206940F0200142F22410EDE710B5044672
:10195000FFF7C6FF04F12000BDE81040FFF77CBF91
:1019600010B50C46C16886B0012902D029B12ED02D
:1019700042E00168022903D02CE00168022911D05D
:101980001FA16B46D1E90021CDE901211EA1D1E9BA
:101990000021CDE903210079052228E003A89DF864
:1019A00000100FE01AA102AB0968009119A10322EF
:1019B000096801910079694603F094F9E0B19DF856
:1019C000081001A8405C2070012006B010BD01681D
:1019D000022911D010A26B46D2E90012CDE9011202
:1019E0000FA2D2E90012CDE903120079062201A963
:1019F00003F078F90028D1D100202070E5E700003D
:101A0000050708090B0000000F0C0A09060000007A
:101A1000090A0B00120F0C0003040506080A000057
:101A2000120C06050403000010B50C46C16886B010
:101A3000012902D029B11FD03AE00168022903D060
:101A40001DE00168022908D01BA1096800911BA1B3
:101A500007E001A89DF8081025E019A10968009188
:101A600018A102AB0968019100790222694603F0CE
:101A700039F90028EDD11BE00168022918D012A223
:101A80006B46D2E90012CDE9011211A2D2E900128F
:101A9000CDE903120079062201A903F023F938B138
:101AA0009DF8001003A8405C2070012006B010BD16
:101AB00000202070FAE70000070B00000A05000074
:101AC000090B00000F0A000003040507090B0000C2
:101AD0000F0A05040302000070B504464FF40055D8
:101AE000284600F06FF820F02001207808B941F076
:101AF0002001284600F08EFC4FF40655284600F0E1
:101B000061F801466078012801D141F00101A07817
:101B1000012801D141F01001E078012801D141F004
:101B200004012079012801D141F02001607A0128C7
:101B300001D141F48071A07A012801D141F0020164
:101B4000E07A012801D141F00801207B012801D170
:101B500041F04001284600F05DFCA079002100B969
:101B60000221607908B941F00101E079012801D131
:101B700041F00401BDE8704042F2500000F04ABC60
:101B80000146002007291BD2DFE801F004070A0DF7
:101B90001013160042F2740010E04FF402500DE0F2
:101BA00042F284000AE042F2780007E042F27C0050
:101BB00004E042F2C81001E04FF4075000F002B810
:101BC0007047000038B50E4D2978012903D0BDE8D3
:101BD000384000F09FB90446694600F0FDF840B176
:101BE000204600F097F905460146204600F04EF9E0
:101BF00004E02869009950F82100050A284638BDFC
:101C0000F00000201CB5010A8DF800108DF80100CD
:101C1000022201A9684600F02DF8BDF8040040BA80
:101C20001CBD1CB5010E8DF80010010C8DF80110C3
:101C3000010A8DF802108DF80300042201A96846FC
:101C400000F018F8BDF804009DF8061040BA000432
:101C500040EA01209DF8071008431CBD1CB5012275
:101C60008DF8000001A9684600F004F89DF8040012
:101C70001CBD000008B54FF0FF33009393B20A4635
:101C80000146044801F03AFEBDE80840012003F097
:101C900099BD00005009002000220421014801F0F4
:101CA00001BA00000008014001220421014801F0AE
:101CB000F9B90000000801402DE9F041044642F264
:101CC00008052846FFF77EFF07460021284600F05A
:101CD000A1FB42F2D8163046FFF774FF20F03F0018
:101CE000216840F008000143304600F093FBE079A2
:101CF0002E1F40B10021304600F08CFB002142F243
:101D0000640000F087FB21790020012900D1012027
:101D1000A16840EA0121304600F07CFB39462846A4
:101D2000BDE8F04100F076BB2DE9F04114460D46C8
:101D3000074642F2D41642F2700808E039467F1C8A
:101D4000304600F067FB02CD404600F063FB641EA6
:101D5000F4D2BDE8F0810000044A002120B1D16036
:101D6000012091611070704711707047F0000020E1
:101D7000044A08B19368036009B1D06808609069AB
:101D800070470000F000002002290BD3064AC2E988
:101D9000011000EB8100001F10610020D060506135
:101DA0009061107070470000F0000020094910B5E4
:101DB0004B69CA684C6813449C4206D98B6843F847
:101DC0002200C868401CC86010BD6FF00300886125
:101DD00010BD0000F000002030B50A4AC0F38704AF
:101DE00000201369D26807E013F82050A54202D101
:101DF0000860002030BD401C8242F5D86FF006001C
:101E000030BD0000F0000020014642F2540000F016
:101E100001BB10B50446006830B101280BD0022880
:101E20001BD003280FD11FE02189606840EA0141DF
:101E300042F2CC1005E02189606840EA014142F29B
:101E4000E81000F0E7FA207B012814D1D4E9010260
:101E50002169BDE81040FFF767BF2189606840EA4B
:101E6000014142F2D010ECE72189606840EA01416B
:101E700042F2E410E5E710BD032805D801218140B6
:101E80004FF4866000F0C6BA704700000C4A10B5E7
:101E9000D4685369234454689C420DD9136980085F
:101EA0001B1F136118701069036861F31F2303601F
:101EB0005069401C506110BD6FF00300906110BD6F
:101EC000F0000020F8B5124F0C460646B0F5085F4A
:101ED00003D36FF00400B861F8BD6946FFF77CFFDB
:101EE000C6F3860558B121463046FFF7CFFF00BF45
:101EF00065F31F6444F00040FFF758FFF8BD3869F0
:101F0000009950F8212064F31F2240F82120EFE7C8
:101F1000F000002010B50446FFF74EFA2020FFF72E
:101F20009DFE2046FFF76EFEFFF74EFAFFF744FADC
:101F30006D20FFF793FE0020FFF790FE42F21400A1
:101F4000A4F5805484424FF0000002D8FFF769FEE8
:101F500001E0FFF757FE0446FFF736FA204610BDB2
:101F600010B50446016842F2501000F053FA42F2F4
:101F70005810616800F04EFA42F25410A16800F067
:101F800049FA42F25C10E16800F044FABDE8104002
:101F90004FF4803142F20C0000F03CBA014642F2AC
:101FA000181000F037BA027A0021012A00D101216D
:101FB0004268006841EA021141EAC01142F2C410CD
:101FC00000F028BA2DE9F0470446027C8A46D4E99D
:101FD00001010025DFF87891002A5ED0FEF7F8FBBA
:101FE000616929D2491C6161E068814200D1656163
:101FF000401EFEF784FB05468846D4E90110FEF733
:1020000060F9FEF7B6FB03F0B5FD07460E466069C2
:10201000FEF775FB3A463346FEF744FA2A46434636
:10202000FEF7B2FA0B4602460020494603F04AFE8C
:1020300005460E46606829E0491E6161E0688142FC
:1020400001D3411E6161401EFEF759FB05460E4655
:10205000D4E90101FEF735F9FEF78BFB03F08AFDA9
:102060002A463346FEF790FA05460E466069FEF7AB
:1020700046FB2A463346FEF715FA02460B46002079
:10208000494603F01FFE05460E46A068FEF771FBA9
:102090002A463346FEF706FA53E0FEF799FB6169DC
:1020A00026D2491C6161E068814200D16561401E11
:1020B000FEF725FB0646D4E9019088464946FEF71F
:1020C000C8F8FEF756FB07460D466069FEF717FB9A
:1020D0003A462B46FEF7E6F932464346FEF754FAF7
:1020E00004460D464846FEF744FB22462B4626E0B2
:1020F000491E6161E068814201D3411E6161401E59
:10210000FEF7FDFA8046D4E901090E464946FEF77E
:10211000A0F8FEF72EFB07460D466069FEF7EFFAC2
:102120003A462B46FEF7BEF942463346FEF72CFAF6
:1021300005460C464846FEF71CFB2A462346FEF79A
:102140000AF9FEF729FBCAF80000BDE8F087000095
:102150000000244010B50446006802280BD0032874
:102160001CD042F24800216B00F054F92179002084
:10217000012930D030E042F23000216A00F04AF903
:1021800042F23C00616A00F045F942F23800A16A6F
:1021900000F040F942F23400E16AE5E742F218004B
:1021A000A16800F037F942F21C00E16800F032F952
:1021B00042F22000216900F02DF942F22800616905
:1021C00000F028F942F22400A16900F023F942F25C
:1021D0002C00E169C8E720206179012901D140F094
:1021E00010002168BDE8104040EA410142F21400AD
:1021F00000F010B910B500F007F80146BDE8104036
:1022000042F2300000F006B970B5064616481A24AE
:102210000D460078012800D11E2415F0FF401DD086
:10222000224601200021FDF77FFFFEF741FA3146EB
:10223000FEF715F82946FEF744F84FF07C51FDF7FC
:10224000B6FFFEF782FA09496FF07F421A2C06D0DA
:102250001346834202D21A2C03D0104670BD0B469F
:10226000F7E7084670BD000000000020FFFF0F00E8
:1022700010B50446808E81B240F6080000F0CAF81E
:10228000606BC0F3034140F60C0000F0C3F8A08C73
:1022900081B24FF4016000F0BDF8606AC0F3034101
:1022A00040F6140000F0B6F8208F81B240F6180016
:1022B00000F0B0F8A06BC0F3034140F61C0000F042
:1022C000A9F8208D81B24FF4026000F0A3F8A06A53
:1022D000C0F3034140F6240000F09CF8A08F81B2C7
:1022E00040F6280000F096F8E06BC0F3034140F69A
:1022F0002C0000F08FF8A08D81B24FF4036000F045
:1023000089F8E06AC0F3034140F6340000F082F837
:10231000B4F8400081B240F6380000F07BF8206C41
:10232000C0F3034140F63C0000F074F8208E81B207
:102330004FF4046000F06EF8206BC0F3034140F6E8
:10234000440000F067F8012140F61C2000F062F81C
:102350002079217A00F0030001F0030140EA8100B6
:10236000217B01F0030140EA0110217C01F003010F
:1023700040EA8110217D01F0030140EA0120217E25
:1023800001F0030140EA8120217F01F0030140EACE
:10239000013094F8201001F0030140EA813140F649
:1023A000040000F037F894F844100020012900D10F
:1023B00001202168BDE8104040EA41014FF400606F
:1023C00000F028B870B504464FF400652846FFF7C2
:1023D000F9FB80B220F00101012C01D141F0010193
:1023E0002846BDE8704000F015B82DE9F0410546DB
:1023F00000244FF4806744F244163846641CFFF70B
:10240000E1FBB04203D0002DF7DDAC42F5D9204608
:10241000BDE8F08170B5154A1278012A1AD0054638
:102420000C46FEF7C9FF2020FFF718FC2846FFF7EF
:10243000E9FBFEF7C9FFFEF7BFFF2D20FFF70EFCFB
:1024400042F21400A5F58055854207D82046FFF7D3
:10245000E8FB06E0BDE87040FFF734BDA0B2FFF72F
:10246000D1FBBDE87040FEF7AFBF0000F0000020D8
:1024700008B54FF4007400BFFFF786F80028FBD0C2
:10248000FEF792FF69460448009400F0BDF9024847
:10249000009901F085FEEFE70C01002010B500F077
:1024A0000FF8FEF737FB4FF40071044800F0EAF92B
:1024B0000021BDE81040084600F094B80C0100204F
:1024C00030B58FB0FFF7F0F8FFF732F9002401259F
:1024D0008DF825408DF824508DF827400895CDE9DA
:1024E000064505948DF8265005A8FEF735FE022016
:1024F000019002900390042004908DF800406846FB
:10250000FEF7B8FF8DF800506846FEF7B3FF0122D2
:10251000951E29461046FFF7D5F82846FFF7E8F83C
:10252000012251060020FFF7CDF82846FFF7E0F81A
:102530002C200A900720CDE90B040E940AA80D94D4
:10254000FEF7E6FD0248FFF729FD0FB0002030BD81
:10255000E5470A0010B5FFF7A7F8FFF7E9F84FF4D1
:102560008060FFF72FFB0446014607A002F0CAF97E
:10257000A4F58240443801D00CA000E012A0BDE8D0
:10258000104002F0BFB90000526561642041444927
:1025900049442072656769737465722C20676F7493
:1025A0003A2030782530346C780A00005265616436
:1025B0002072656769737465722074657374206630
:1025C00061696C65642E0A005265616420726567FA
:1025D0006973746572207465737420706173730A13
:1025E00000000000F0B500250126304C93B06FF0DC
:1025F0000807052857D2DFE800F0032331344200F2
:102600000A20FFF7F2FE0A281FD894F8980098B124
:1026100004208DF844600095019509906169E06996
:10262000FDF74FFEFEF791F8001F0D906846FFF78B
:102630001FFEC4F8C85036E06FF0630013B0F0BD61
:102640000A20FFF7D2FE0A2801D93846F6E7002013
:10265000FFF7B8FE0020FFF7B5FE24E084F8C46061
:1026600021E031B194F87000012805D0A06D086018
:1026700019E06FF00100E1E7D4F89400F7E70021DA
:102680000120FFF7AFFF0F95109511950FA8129538
:10269000FFF722FA3C216846FDF77EFD6846FFF70A
:1026A00055F9FEF7DAFE0020C8E700002000002000
:1026B0002DE9FE4F8A4609680023CAF800304FEA28
:1026C0009108814621F003034C460021474D0BE061
:1026D00050F82120C2F3110240F82120960302D5C0
:1026E0002A4340F82120491C9942F1D3002664E096
:1026F000254604F1080710346868FDF7CBFF014652
:10270000FDF7ADFD83462868FDF7C4FF0146FDF7E0
:10271000A6FD5946FDF74BFDFEF72BF803F0BEFF73
:10272000FEF73AF801902868FDF7D8FF834600913C
:1027300068684042FDF7D2FF5A46009B02F074FFE2
:10274000FEF72AF802907868FDF7A4FF0146FDF72E
:1027500086FD05463868FDF79DFF0146FDF77FFDC4
:102760002946FDF724FDFEF704F803F097FFFEF776
:1027700013F883463868FDF7B1FF05460091786885
:102780004042FDF7ABFF2A46009B02F04DFFFEF7EB
:1027900003F8074659460198FDF793FD1449896AE5
:1027A000FDF75DFD054639460298FDF752FD49F8F3
:1027B000365009EBC601761C4860464598D30C4854
:1027C000CAF80080D0F88C10C0F8941090F87010FF
:1027D000012908D1D0F89010C0F88C1000F19001B8
:1027E0007030FFF7EFFB0020BDE8FE8F0000FCFF1C
:1027F0002000002018B103490160002070476FF0ED
:102800000100704720000020F8B50646002008604F
:102810000C460A20FFF7E9FD0A2802D96FF00800EC
:10282000F8BD0020FFF7BAFB4FF0007529460020E5
:10283000FEF76EFF012804D00EA002F063F800201E
:10284000F8BDFEF74CFE20F0030130460091FEF784
:102850004DFE2846FEF74CFF6946304600F08CF8E6
:102860000748FFF79BFB69463046FFF721FF0098BA
:102870002060E4E76E6F7420696E2069660D0A00BF
:10288000E5470A002DE9F041804688B00F460A204E
:10289000FFF7ABFD0A2804D96FF0080008B0BDE8C7
:1028A000F081002601258DF805608DF806508DF821
:1028B000075000958DF8046068460296FFF7FCF912
:1028C00000210220FEF701FE02202A4C8DF80C5058
:1028D000049005900690D4F88800079003A8FEF7AE
:1028E000C9FDA81EFEF704FF94F8980010B12078E7
:1028F000012813D16FF00100B8F1000FCED0002FE6
:10290000CCD039464046FFF73FFA00F057F8002890
:10291000C4D100F061F90028C0D12670154884F8B0
:10292000A8609C30FFF775FA8DF804506846FFF7F1
:10293000C3F9D4F89C00FFF79FFA4FF400473946DB
:102940000120FEF7E5FE0028F9D00A4884F8BC60B3
:10295000B030FFF75EFA8DF804506846FFF7ACF927
:10296000FEF722FD0321E06BFEF7CCFB84F89850C4
:10297000002093E7200000200F4810B58269002A4C
:1029800008DDD0F8C830096803EB9101C0F8C81021
:1029900091420DD290F8C410012909D090F870101E
:1029A00021B1016AD0F89000FFF724FC002010BD8F
:1029B0000020FFF707FDF9E720000020F0B5BDB0CB
:1029C0000120FFF7C9F900217848FEF76EFB0026C9
:1029D00001258DF8B8508DF8BA508DF8C360744C4D
:1029E0008DF8B9508DF8C1608DF8C4608DF8C26063
:1029F0008DF8BC608DF8BB60606D10F0FF4F04D0A7
:102A00008DF8BD508DF8BE5003E08DF8BD608DF897
:102A1000BE608DF8BF602EA8FFF75EF8606C049072
:102A2000A06C0590E06C06908DF86060606D10F011
:102A3000FF4F01D0149500E0149605201A901F272F
:102A40000B2017971990206C1590E06A0090206B6E
:102A50000190606B0290A06B40F4807003900220A4
:102A60008DF8205007908DF8215094F870000128BF
:102A700029D0A06DC4F89400216AFFF7C5FB0F9020
:102A80004C49206DFDF71DFC4B49FDF7E8FB4FF06D
:102A90007C51FDF78CFBFDF758FECDE9100668462A
:102AA0001296FEF7C4FD606D10F0FF4F2FD020216D
:102AB0003496ADF8E410414A414932963596904239
:102AC0000ED940480FE054F8740F39492062903114
:102AD000A061A1F12000FFF775FAA069743CCBE773
:102AE000884201DD38486065FDF761FB3749FDF735
:102AF000E8FBFDF72AFEADF8E2008DF8E060CDE9D5
:102B0000367633968DF8E15032A8FEF7E9FE1E9531
:102B10001D95A06E269627961F9094F86E00CDE91D
:102B2000220594F86D00219094F86C0020908DF8A7
:102B300090508DF891608DF89450E06D2890206E43
:102B4000299094F864008DF8A8002B962C961DA867
:102B500054342D96FEF768FC54F854094FF00101E7
:102B600010F0FF4F12D01A48FEF79FFA4FF00140C5
:102B7000FFF71CF93BA93AA8FFF7FAF80646002030
:102B8000FFF7EAF826B130463DB0F0BD1148EBE75B
:102B900044F89C5F54F8980C60603A9921613B9A24
:102BA000A260FFF7C1F80020EEE70000E0FF390067
:102BB000200000200000484400E0FF44008089C459
:102BC00000808944CF6E89C4CF6E89449988093FBB
:102BD000404E3100404E11002DE9F04190B04B4C79
:102BE00003200590206E0A9094F85C000125801C5B
:102BF00005FA00F0069094F86D00089094F86C00C7
:102C0000079094F86E000990D4E90801FDF759FB8C
:102C10000C9004A905A8FEF715FB0120FFF79CF80E
:102C20000420FFF7F1F84FF47A60FFF7BFF868026D
:102C30000095CDE901504FF4106003906846FFF70E
:102C40008FF9334D01212846FEF72FFA4FF48146C4
:102C500001213046FEF729FAA020FFF7A7F84FF42C
:102C6000014801214046FEF720FA049820F0404038
:102C7000FFF79CF84CF2801700213846FEF715FA52
:102C8000E06A0090206B0190606B0290A06B40F4B2
:102C9000807003906846FFF763F901213046FEF724
:102CA00004FAA020FFF782F801214046FEF7FDF963
:102CB000049820F04040FFF779F800213846FEF7ED
:102CC000F4F900212846FEF7F0F90020FFF79CF800
:102CD000FEF7C3FB0EA90DA8FFF74AF80546002032
:102CE000FFF73AF81DB1284610B0BDE8F08100208A
:102CF000C4F8B000F4E92801084460610D9921622C
:102D00000E9AA261FFF710F80020EDE720000020E6
:102D1000404E1100FEE77047024901200870022072
:102D200000F0C6B80100002072B602A001F0EAFD72
:102D3000FBE700006572726F722121210D0A00000D
:102D400010B590F821100022022905D004218163DA
:102D500080F82020012010BD01680B6823F00E03CD
:102D60000B6001680B6823F001030B6090F84030A2
:102D7000C46B012101FA03F3636080F8211080F82D
:102D80002020104610BD000010B590F8211000243E
:102D9000022903D00421816301243DE001680A680F
:102DA00022F00E020A6001680A6822F001020A603D
:102DB0001A4A0168914201D1012121E0174A1432D7
:102DC000914201D110211BE0144A2832914201D1D5
:102DD000891515E0114A3C32914201D189140FE066
:102DE0000E4A5032914202D14FF4803108E00B4A32
:102DF0006432914202D14FF4801101E04FF08071B2
:102E0000064A083A5160012180F82110002180F81B
:102E10002010416B01B18847204610BD08000240D8
:102E200030B528B308C8134914221944B1FBF2F194
:102E30008900C16310498163022141771A6843F612
:102E4000F0718A43D0E900142143D0E902452C43B4
:102E50002143046921434469214384692143114387
:102E6000196000214163012242770177084630BD95
:102E7000012030BDF8FFFDBF0000024070B50446E0
:102E800000F016F90546601C02D00448007804449E
:102E900000F00EF9401BA042FAD370BD10000020D4
:102EA000022801D101490860704700001404014064
:102EB000034910B50968014201D0FFF7F1FF10BDC9
:102EC000140401402DE9F84FDFF8B8910024A9F16E
:102ED000040B23460F2709F1040AABF1040EC9E0E5
:102EE0000125A5402A40AA427DD1674ED1F804C0F1
:102EF000ACEB0608B44532D014DCBCF1030F3AD079
:102F000009DCBCF1000F2AD0BCF1010F1CD0BCF1D0
:102F1000020F31D11DE0BCF1110F17D0BCF1120F1F
:102F20002AD119E0B8F5881F19D006DCB8F5803F22
:102F300015D0B8F5801F1FD111E0B8F5001F0ED0D5
:102F4000B8F5041F18D10AE0CB6815E0CB681B1D4B
:102F500012E0CB6808330FE0CB680C330CE08B68D1
:102F60002BB1012B4FF0080303D0456104E004238B
:102F700002E0056100E00023FF2A01D8064601E0D7
:102F800000F104064FEA840501D9A5F12005D6F821
:102F9000008007FA05FC28EA0C0803FA05F548EA60
:102FA0000508C6F800804D68ED0062D5374DAE6962
:102FB00046F00106AE61AD6924F0030605F0010597
:102FC0000095334D06EB050CDCF80850A607360FCC
:102FD00007FA06F825EA0805DFF8B880404503D16E
:102FE0004FF0000817E044E0DFF8AC80404502D124
:102FF0004FF001080FE0DFF8A480404502D14FF008
:10300000020808E0DFF89880404502D14FF003083D
:1030100001E04FF0040808FA06F848EA0508CCF881
:1030200008804D68D9F80060ED024D4601D5164381
:1030300000E096432E604D68DAF80060AD02554618
:1030400001D5164300E096432E604D68DBF8006022
:10305000AD035D4601D5164300E096432E604D68F2
:10306000DEF80060ED03754601D5164300E0964397
:103070002E60641C0D682A46E5407FF431AFBDE840
:10308000F88F0000080401400000111000100240F9
:103090000000014000080140000C01400010014008
:1030A000001401400AB1016170470904FBE7000008
:1030B00001488068704700001000002002488168C5
:1030C000027811448160704710000020074810B555
:1030D000016841F010010160032000F079F803203D
:1030E00000F006F800F024F8002010BD0020024097
:1030F00070B50D4D04464FF47A712878B1FBF0F0AD
:103100000A490968B1FBF0F000F0EFFC48B9102C57
:1031100007D200222146501E00F03AF800206C60D1
:1031200070BD012070BD0000100000201C000020B8
:103130000E4808B5816941F001018161816901F0A2
:1031400001010091C16941F08051C161C06900F085
:1031500080500090052000F03BF80548416821F0C0
:10316000E06141F00071416008BD000000100240C4
:1031700000000140002809DB00F01F0201219140FE
:103180004009800000F1E020C0F800117047000005
:10319000F0B40E4B1B680C46C3F30223C3F10705C2
:1031A000042D00D90425191D072901D2002300E0B0
:1031B000DB1E012606FA05F1491E214099409E407A
:1031C000761E16403143F0BC01F02CBC0CED00E043
:1031D000064900F0070208684FF6FF03184040EA6E
:1031E0000220034A10430860704700000CED00E025
:1031F0000000FA052DE9F0470F46050061D0434E67
:10320000306800F00700B84209D2306820F00700AB
:1032100038433060306800F00700B84251D1286868
:103220003B4C810712D5400703D5606840F4E0604D
:1032300060602878000703D5606840F460506060E3
:103240006068A96820F0F000084360602878C00733
:1032500028D06868012810D02168022810D089077A
:1032600000292EDA616821F0030101436160FFF754
:103270001FFF804641F288390DE021688903EFE79E
:103280008901EDE7FFF714FFA0EB0801494502D9DA
:103290000320BDE8F0876068696800F00C00B0EBBF
:1032A000810FEFD1306800F00700B8420BD93068C9
:1032B00020F0070038433060306800F00700B84263
:1032C00001D00120E5E72878400705D56068E96866
:1032D00020F4E060084360602878000706D5606845
:1032E000296920F4605040EAC100606000F038F8BD
:1032F0006168084AC1F30311515CC840064908607F
:1033000006480068FFF7F4FE0020C2E700200240F4
:1033100000100240566900081C0000201400002024
:103320000448054900684968044AC1F30221515C18
:10333000C84070471C000020001002406669000869
:103340000448054900684968044AC1F3C221515C38
:10335000C84070471C000020001002406669000849
:103360000E4A51680E4801F00C03042B11D0082BB3
:103370000FD10C48C1F38343C903C05C0AD551681F
:10338000084AC1F34041921E515C054A5043B0FBCC
:10339000F1F07047044948437047000000100240B4
:1033A00000127A004669000800093D002DE9F84F37
:1033B000040070D02078C04DC00749D06868C0F3C1
:1033C0008100012807D06868C0F38100022809D174
:1033D0006868C00306D52868800339D5606800286E
:1033E000E7D035E06068B0F5803F0BD010B1B0F5A4
:1033F000A02F11D0286820F480302860286820F49D
:10340000802002E0286840F480302860606890B135
:10341000FFF74EFE06460AE0286840F48020286048
:10342000F0E700BFFFF744FE801B642873D82868CC
:103430008003F7D50CE0FFF73BFE064605E000BF32
:10344000FFF736FE801B6428F0D828688003F7D485
:1034500020789A4E80074FF001094FF0000839D5C7
:10346000686810F00C0F07D06868C0F3810002286C
:1034700009D16868C00306D42868800714D520697C
:10348000012808D110E02069B0B1C6F80090FFF71C
:103490000FFE074605E00AE1FFF70AFEC01B0228FF
:1034A000C4D828688007F7D52868616920F0F8003B
:1034B00040EAC10028600DE0C6F80080FFF7F8FD83
:1034C000074604E0FFF7F4FDC01B022823D8286854
:1034D0008007F7D4207800072CD57948A169D9B1A5
:1034E000C0F80090FFF7E4FD074604E0FFF7E0FDB9
:1034F000C01B02280FD8686A8007F7D571484FF4BF
:10350000FA510068B0FBF1F0009000BF0098411E36
:103510000091FAD20EE080E0C0F80080FFF7C8FD0D
:10352000074604E0FFF7C4FDC01B022875D8686A8F
:103530008007F7D42078400760D5E8690027C000ED
:1035400008D4E86940F08050E861E869012700F09C
:10355000805000905C480168C90513D40168834617
:1035600041F480710160FFF7A3FD824606E000BFD1
:10357000FFF79EFDA0EB0A0064284ED8DBF80000A0
:10358000C005F5D5E06801280AD008B1052813D098
:10359000286A20F001002862286A20F0040002E076
:1035A000286A40F001002862E06841F2883B98B147
:1035B000FFF77EFD82460BE0286A40F00400286297
:1035C000EEE700BFFFF774FDA0EB0A0159455AD89A
:1035D000286A8007F6D50CE0FFF76AFD824605E011
:1035E000FFF766FDA0EB0A0159454CD8286A800711
:1035F000F6D41FB1E86920F08050E861E06988B333
:103600006968C1F38101022944D00228C6F86080AC
:1036100004D0FFF74DFD044638E034E0FFF748FDE5
:10362000074604E0FFF744FDC01B02282BD828689A
:103630008001F7D4206AB0F5803F05D16868A168A1
:1036400020F4003008436860D4E908010843696841
:1036500021F4741108436860C6F86090FFF728FDF4
:10366000044606E025E000BFFFF722FD001B02280C
:1036700009D828688001F7D51BE000BFFFF718FDC7
:10368000001B022802D90320BDE8F88F28688001BA
:10369000F4D40EE00128F7D06868226A00F4803183
:1036A000914204D1616A00F47010884201D0012077
:1036B000EAE70020E8E70000001002400000424274
:1036C000800442421C00002000700040704700004F
:1036D00038B50446006842688168C9434B0606D580
:1036E000CB0704D1D3435B0601D4216C05E08B07E3
:1036F00008D4D3431B0605D4616C01B02046BDE855
:10370000304008478B0601D54B0646D4D3439B0671
:1037100043D44B060AD494F85130032B3ED0636D4A
:1037200043F004036365C36883680093890609D482
:10373000616D41F00101616581680091016821F0CE
:1037400040010160606D002827D02068416821F0A9
:10375000E0014160012084F85100900722D02068E8
:10376000416821F003014160104DE06C40B14563B8
:10377000E06CFFF709FB18B1606D40F04000606538
:10378000A06C002809D04563A06CFFF7FDFA002863
:1037900003D0606D40F04000606538BDC16880684E
:1037A000009038BD2046FFF791FF38BD294400083E
:1037B00070B5040009D0606A002540B125616561DB
:1037C000A56294F8510040B10CE0012070BD606822
:1037D000B0F5827FF4D0E561F2E784F850502046DE
:1037E00000F040F8022084F851002068016821F0C0
:1037F00040010160A088218900F4827001F4044135
:103800000843A18901F400610843217C01F0020111
:103810000843217D01F001010843218B01F400716F
:103820000843217F01F03801084394F8201001F08B
:1038300080010843218D01F400510843216808608C
:10384000A069042101EA1040216848602068C1692C
:1038500021F40061C1616565012084F851000020F8
:1038600070BD000030B585B000240094019402942E
:1038700003940068194988422ED11948816941F49E
:1038800080518161816901F480510491816941F025
:10389000040181618069134D00F004000490A020B0
:1038A0000090022001900320039069462846FFF70C
:1038B00009FB4020CDE90004694628460294FFF741
:1038C00001FB002202212320FFF762FC2320FFF7E7
:1038D00051FC05A001F016F805B030BD00300140E4
:1038E000001002400008014048414C5F5350495FBE
:1038F0004D7370496E69740D0A0000002DE9FF4F89
:1039000081B0044690F8500000260E9F1D46934655
:103910004FF0010901280FD04FF0010A84F850A0A0
:10392000FFF7C6FB804694F85100616801280DD06E
:10393000B1F5827F08D103E0022005B0BDE8F08F29
:10394000A16809B9042801D00226C9E0029800281C
:1039500065D0BBF1000FFBD0002DF9D094F85100D9
:10396000042802D0052084F8510000206065C4F8C6
:1039700038B0E587A58702992163E586A58620648E
:10398000606420680168490603D4016841F0400181
:103990000160E068B0F5006F606803D0F0B3012DFE
:1039A00047D081E008B1012D3CD1206B216800880F
:1039B000C860206B801C2063E08E401EE08631E0F2
:1039C0002068816889070FD5E18E69B1B9F1010FCF
:1039D0000AD1216B0988C160206B801C2063E08EB6
:1039E000401EE0864FF0000920688168C9070CD0AE
:1039F000E18F51B1C068A16B0880A06B801CA063EF
:103A0000E08F401EE0874FF00109FFF751FBA0EB6C
:103A10000800B84206D3781C04D001E009E05BE05E
:103A200003265BE0E08E0028CAD1E08F0028C7D1D2
:103A300040E0206B216800780873206B401C2063F5
:103A4000E08E401EE0862FE02068816889070FD550
:103A5000E18E69B1B9F1010F0AD1216B09780173C7
:103A6000206B401C2063E08E401EE0864FF0000972
:103A700020688168C9070CD0E18F51B1C068A16B83
:103A80000870A06B401CA063E08F401EE0874FF0E1
:103A90000109FFF70DFBA0EB0800B84202D3781C28
:103AA00002D0BAE7002FB8D0E08E0028CCD1E08F4A
:103AB0000028C9D142463946204600F0BDFC18B165
:103AC0000126202060650BE0A06818B92068C16855
:103AD00080680090606D08B1012601E084F851A073
:103AE000002084F85000304627E710B5401EB0F1A2
:103AF000807F01D3012010BD4FF0E02460610F21D1
:103B0000601700F08FFF0020A061072020610020D7
:103B100010BD000070B590F83C20012A26D0012489
:103B200080F83C40022280F83D2003685A689D6876
:103B300022F070060A6832435A600D4B02689A42BE
:103B400008D0B2F1804F05D00A4B9A4202D00A4BFE
:103B50009A4204D1496825F080031943916080F8A6
:103B60003D40002180F83C10084670BD022070BD29
:103B7000002C0140000400400008004010B5040083
:103B800003D094F83D0010B107E0012010BD0020E3
:103B900084F83C00204600F01FF8022084F83D0025
:103BA000211D206800F0E4FC012084F8460084F820
:103BB0003E0084F83F0084F8400084F8410084F817
:103BC000420084F8430084F8440084F8450084F8F7
:103BD0003D00002010BD000008B50068064988427D
:103BE00008D10648C16941F00401C161C06900F013
:103BF0000400009008BD00000008004000100240D2
:103C000070B5044690F83C000025012817D0012625
:103C100084F83C60022084F83D002068826822F02D
:103C2000770222F47F4282600868502838D00DDC89
:103C300020284FD005DC90B3102811D14AE0022093
:103C400070BD302846D040280AD13BE060282FD0F4
:103C500070280DD0B0F5805F03D0B0F5005F12D0B2
:103C6000012584F83D60002084F83C00284670BDA2
:103C7000CB68D1E90121206800F0B0FC20688168A0
:103C800041F0770109E0CB68D1E90121206800F01B
:103C9000A5FC2068816841F480418160E1E719E07A
:103CA000CA684968206800F0ABFC5021206806E033
:103CB000CA684968206800F0B4FC6021206800F000
:103CC00097FCCEE7CA684968206800F099FC40215B
:103CD0002068F4E7226801461046F0E77047704715
:103CE00010F8411F4078084370470000F8B501689C
:103CF00004460868CA684B6910F00F0F4FF00005C2
:103D000059D003F0010602F49077374365D0C1071C
:103D100005D0D10503D5616C41F001016164410713
:103D200005D5D90703D0616C41F0020161648107B8
:103D300005D5D90703D0616C41F004016164010726
:103D400007D502F02001314303D0616C41F0080136
:103D50006164616C00293AD0800604D5900602D5D2
:103D6000204600F09FFC20684069616CC0F3801021
:103D7000090700D460B3204600F06DFC206840695C
:103D8000400621D52068143050E8001F21F0400182
:103D900040E80012002AF5D1E06BA8B16D494163FB
:103DA000E06BFEF7F1FF002811D0E06B416B01B032
:103DB000BDE8F040084783060FD593060DD5204691
:103DC000BDE8F84000F06EBC2046FFF788FFF8BD64
:103DD0002046FFF784FF6564F8BD266B2023012E83
:103DE0007CD1C6067AD5D60678D508684868009092
:103DF00048694FF00206400640D5E16B086840680C
:103E00000004000CE8D0A28D8242E5D9E0858869E3
:103E100020282DD020680C3050E8001F21F480713C
:103E200040E80012002AF5D12068143050E8001F45
:103E300021F0010140E80012002AF5D12068143079
:103E400050E8001F21F0400140E80012002AF5D19F
:103E500084F84230256320680C3050E8001F21F0C0
:103E6000100140E80012002AF5D1E06BFEF768FF70
:103E70006663A08DE18D401A81B22AE0A08DE18DAC
:103E8000401A81B2E08D0028A6D00029A4D0226873
:103E90000C3252E8000F20F4907042E80007002F27
:103EA000F5D12068143050E8002F22F0010240E8DC
:103EB0000027002FF5D184F84230256320680C30AC
:103EC00050E8002F22F0100240E80023002BF5D12B
:103ED00066632046FFF702FFF8BDFFE705062BD516
:103EE000150629D594F841002128F5D1A068B0F530
:103EF000805F01D12069B0B1206A411C2162216834
:103F000000784860E08C401E0004000CE084E3D19F
:103F10002068C16821F08001C1602068C16841F05B
:103F20004001C160D8E7206A0088C0F308004860FB
:103F3000206A801C2062E5E74006CDD55006CBD52F
:103F4000CA68204622F04002CA6084F8413000F07E
:103F500024F9C1E74746000870B5040004D094F87E
:103F60004100002510B106E0012070BD84F84050EA
:103F7000204600F023F8242084F841002068C1681E
:103F800021F40051C160204600F0EEFB2068016979
:103F900021F4904101612068416921F02A014161C9
:103FA0002068C16841F40051C1606564202084F834
:103FB000410084F842006563002070BD30B585B0D3
:103FC00000240094019402940394006818498842E4
:103FD0002CD11848816941F480418161816901F4E3
:103FE00080410491816941F0040181618069124D31
:103FF00000F0040004904FF4007000900220019043
:104000000320039069462846FEF75CFF2815CDE99A
:104010000004694628460294FEF754FF0322114625
:104020002520FFF7B5F82520FFF7A4F805B030BD2F
:1040300000380140001002400008014090F8423072
:10404000202B01D00220704721B11AB10023036355
:1040500000F0E6BB0120704770B500681E49884239
:104060000CD11E4C2088010408D41D4942044FF095
:10407000000509781FD50A2901D0258070BD40F4BC
:10408000004020800104F9D5C6B216A000F03AFC29
:1040900019494FF47A73324601F1C80000F030F844
:1040A0001548C83000680168C9434906FBD413A00D
:1040B00000F028FCE1E70D2909D0C0F30D020E4BFA
:1040C000401C80B299542080C728D6D870BD40F4D7
:1040D0008040208070BD0000003801400A000020B0
:1040E000080000200D0AC4FAB7A2CBCDB5C4CFFB9F
:1040F000CFA2CEAA3A0D0A00F00900200D0A000056
:104100002DE9F843044690F841001F4616460D4637
:10411000202802D00220BDE8F8837DB176B10020CE
:104120006064212084F84100FEF7C2FFA684804627
:10413000E684A068B0F5805F02D003E00120EAE7E2
:10414000206910B12E4600250EE000260CE08021EB
:10415000204600F080FBA0B9AEB116F8010B216833
:104160004860E08C401EE084E08C43464FF0000243
:1041700000970028EBD14FF04001204600F06BFB88
:1041800030B10320C7E735F8020BC0F30800E6E7BB
:10419000202084F841000020BDE77047FEE70000C2
:1041A0002DE9FF410F46054603A90320FEF71AFA41
:1041B0000398FCF7DEFA02460B4613A000F0A2FBC0
:1041C00000241AE005EBC40012494068FCF747F8E8
:1041D0001149FCF776F8FCF7CCFA80460E4655F804
:1041E0003400FCF7C6FA0246CDF800800B460BA05F
:1041F000CDE9016700F086FB641CBC42E2D304B049
:104200000020BDE8F0810000467265713A252E322B
:104210006620000000003443DA0F4940527A4D61B5
:10422000673A202566204F686D202C20527A50680E
:104230006173653A202566202064617461636F753F
:104240006E743A2564200D0A00000000104808B57D
:10425000416941F00101416140690E4900F00100EE
:1042600000900D4801604FF4804141604021816021
:104270008021C1600021016141618161C161FEF75E
:10428000CFFD002803D0BDE80840FEF74DBD08BDB6
:1042900000100240080002400C09002070B586B0F2
:1042A00000251C480095019502950395816941F010
:1042B00020018161816901F020010491816941F04F
:1042C000040181618069144E00F004000490012211
:1042D00014213046FEF7E6FE022410486946CDE977
:1042E000004030460294FEF7EDFD142000900120BE
:1042F0000394CDE9010569463046FEF7E3FD00224F
:1043000011460720FEF744FF0720FEF733FF06B0F3
:1043100070BD0000001002400008014000002110A4
:10432000104810B50E4901604FF4827141600021C0
:104330008160C1604FF400720161C0E90512102272
:10434000C0E90721416281620A21C162FFF730FAA8
:10435000002803D0BDE81040FEF7E6BC10BD000009
:10436000003001405009002010B586B000241748E5
:1043700000940194029403940494134905940160F9
:104380004721C0E901144FF6FF71C0E903148461AD
:10439000FFF7F4FB08B1FEF7C7FC4FF48050009024
:1043A00069460A48FFF72CFC08B1FEF7BDFC0494EF
:1043B00004A906480594FFF7ADFB002801D0FEF7DD
:1043C000B3FC06B010BD000000080040A8090020A2
:1043D0000E4810B50C4901604FF4E13141600021F5
:1043E00081600C22C160C0E904128161C161FFF7E4
:1043F000B3FD08B1FEF798FCBDE810400122044966
:104400000248FFF71BBE000000380140B80A002038
:1044100008000020FEE7FEE7704700000148FFF7B4
:1044200057B900005009002010B5406A0021C1872B
:10443000C186FFF74BF910BD38B50B460092044614
:104440000022802100F008F8002804D0606D40F0C0
:1044500020006065032038BD2DE9F8431E469146D3
:1044600088460446089DFEF723FE401B351AFEF7DA
:104470001FFE074625480068C0F3CB30684338E08C
:10448000701C37D0FEF714FEC01BA84203D215B132
:10449000009860B32CE02068416821F0E0014160A1
:1044A0006068B0F5827F0BD1A068B0F5004F02D0F4
:1044B000B0F5806F04D12068016821F040010160EF
:1044C000A06AB0F5005F09D12068016821F40051AD
:1044D00001602068016841F400510160012084F806
:1044E0005100002084F850000320BDE8F883002527
:1044F000401E00902068816838EA010004D0002145
:104500004945BDD10020F0E70121F9E71C0000205A
:104510007047FEF7D3BD30B58FB028216846FBF752
:104520003BFE14210AA8FBF737FE01210804CDE960
:1045300000100024029402250491CDE907504FF4A5
:10454000E01009906846FEF731FF60B90F20CDE911
:104550000A056802CDE90C4002210AA80E94FEF774
:1045600049FE002801D0FEF7DFFB0FB030BD7047D9
:10457000F0B50268164B174C174D4FF08047984224
:1045800005D0B84203D0A04201D0A84203D122F006
:1045900070064A683243984205D0B84203D0A04220
:1045A00001D0A84203D122F44074CA6822434C6966
:1045B00022F08002224302608A68C2620A68826234
:1045C000984201D10969016301214161F0BD0000F8
:1045D000002C0140000400400008004010B5846831
:1045E00042EA032224F47F440A432243826010BD3E
:1045F000826822F070020A4342F00701816070472E
:1046000010B5036A046A24F001040462846924F08A
:10461000F00444EA021423F00A020A4384610262AD
:1046200010BD10B5036A046A24F0100404628469A2
:1046300023F0A00324F4704444EA023243EA011157
:104640008261016210BD10B5406A0021C185C1843C
:10465000FFF745FB10BD01680C3151E8002F22F433
:10466000907241E80023002BF5D10168143151E824
:10467000002F22F0010241E80023002BF5D1016B4D
:10468000012909D101680C3151E8002F22F01002F4
:1046900041E80023002BF5D1202180F842100021B1
:1046A0000163704708B590F84210222901D002201A
:1046B00008BD82684FF480539A4201D1016921B14B
:1046C000816A9A421BD04AB10AE00268816A526844
:1046D000C2F308020A80816A891C08E0026972B18B
:1046E0000268526802F07F020A70816A491C816286
:1046F000C18D491E0904090CC18503D01BE0026865
:104700005268F1E70168CA6822F02002CA600168B5
:10471000CA6822F48072CA6001684A6922F0010204
:104720004A61202180F8421000214163026B012A76
:1047300003D0FFF791FC002008BD016301680C3134
:1047400051E8002F22F0100241E80023002BF5D1A0
:1047500001680A68D20602D50A6849680091818D0D
:10476000FFF7BCFAE7E7000070B50446006801698E
:10477000E26821F44051114301612169A0680843B6
:10478000616908432168CA6841F20C639A43024395
:10479000CA6020684169A26921F4407111434161F6
:1047A0001E492068884202D1FEF7CAFD01E0FEF7EB
:1047B000B7FD00EBC00101EB0012606864218000CE
:1047C000B2FBF0F3B3FBF1F36FF018067343B2FBE7
:1047D000F0F5B2FBF0F605EB8305322303EB05158C
:1047E000B5FBF1F5B6FBF1F605F0F00505EB0615A6
:1047F000B2FBF0F6B2FBF0F0B0FBF1F06FF0180294
:10480000504306EB800003EB0010B0FBF1F0216891
:1048100000F00F002844886070BD0000003801409F
:1048200081628285C28500214164222180F8421084
:10483000016921B10168CA6842F48072CA600168E6
:104840004A6942F001024A610068C16841F02001F2
:10485000C160002070472DE9F041984617460E468A
:104860000446069D27E0681C25D02DB1FEF720FCEC
:10487000A0EB0800A8421ED920680C3050E8001FA9
:1048800021F4D07140E80012002AF5D120681430DC
:1048900050E8001F21F0010140E80012002AF5D184
:1048A000202084F8410084F84200002084F8400071
:1048B0000320BDE8F0812068006836EA000004D0DB
:1048C0000020B842CFD00020F3E70120F9E7000034
:1048D00010B50948FFF70AFA0748FFF707FA064834
:1048E000FFF7FEF92028FAD1012204490248FFF718
:1048F000A5FB0028F8D110BDB80A00200800002050
:10490000FEE700000FB4054B10B503A9044A029856
:1049100000F0F6F910BC5DF814FB00000158000827
:104920000C0000201FB501208DF802008DF8010059
:104930008DF805008DF800008DF808008DF8060050
:1049400000208DF80B008DF80A008DF804008DF81A
:104950000C008DF809008DF803008DF807006846FB
:10496000FDF7BAF81FBD0000FFB40B2911D20329CF
:1049700002D3C90040310DE00C4E052A78CE8DE8F7
:10498000780006D201EB81016B461944895CC900AD
:1049900000E0F821114310B142F2F40001E042F2CC
:1049A000F80004B0F0BCFDF735BD00002068000839
:1049B00070B5044600250420FCF79AFE0E4E012136
:1049C0003046FCF772FB0120FCF744FD0421012076
:1049D000FCF79EFE20B10120FDF7D2F8054605E068
:1049E0002168481CEFD0491E2160ECD100213046DF
:1049F000FCF75BFB284670BD00010100490050EA4E
:104A0000C12018BF04204A0D18BF40F0010040F239
:104A1000FF72B2EB515F08BF40F00200012808BFEF
:104A2000052070470907090E002804DB00F1E0208B
:104A300080F80014704700F00F0000F1E02080F8CB
:104A4000141D70472DE9F0414F1E00EBC7010446CD
:104A5000D1E9000115461E4637F006020DD02A4660
:104A60003346FBF71FFD7F1E04EBC703D3E900238A
:104A7000FBF771FC37F00602F1D1022F25D0042F8D
:104A800013D0062F18BFBDE8F0812A463346FBF746
:104A900009FDD4E90A23FBF75EFC2A463346FBF7FF
:104AA00001FDD4E90823FBF756FC2A463346FBF701
:104AB000F9FCD4E90623FBF74EFC2A463346FBF704
:104AC000F1FCD4E90423FBF746FC2A463346FBF706
:104AD000E9FCD4E90223FBF73EFC2A463346FBF708
:104AE000E1FCD4E90023BDE8F041FBF734BC000051
:104AF0000022134610460149FBF746BD0000F03F77
:104B00000122FBF7B0BDFBF726BC0022134610467E
:104B10001146FBF739BD40F2013200204FF0E04171
:104B2000FBF7A1BD024A00201107FBF79CBD000066
:104B300001FDFFFF02E008C8121F08C1002AFAD1D8
:104B400070477047002001E001C1121F002AFBD10D
:104B5000704700000149086070470000EC00002029
:104B60002DE9FF5F82B00021DDE90430020DDDF8A0
:104B700040B0034318D044F61050A2F2FF32424333
:104B80001514119801281FD0A5EB0B00401C5FEAFB
:104B9000000A4FF000064E4FDFF83891B0465046FD
:104BA00015D5CAF1000413E0119801244AA3012885
:104BB00001D16FEA0B010298119AC0E90031C0E9F6
:104BC000024206B0BDE8F09FCBF10000DFE70446EB
:104BD0000021404A491842EB0450CDE9001012E090
:104BE000E00707D032463B4640464946FBF75AFCB1
:104BF0008046894632463B4610461946FBF752FC32
:104C000006460F466410002CEAD1DDE90401DDE917
:104C10000023BAF1000F06DAFBF744FC42464B468C
:104C2000FBF740FC05E0FBF7AFFC42464B46FBF7C9
:104C3000ABFC04460E460022284BFBF741FF03D88D
:104C40004FF0FF30014607E00022254B2046314659
:104C5000FBF781FBFBF704FF102409E0002C0ADBC3
:104C60000A220023FBF7D4FD039B30321A55641E41
:104C700050EA0102F2D1641C039AC4F111031444F6
:104C8000119A012A03D0012208430DD10AE00843FA
:104C900004D000204FF0110B119072E7A3EB0B052D
:104CA0006D1E0DE05B4504DD4FF0000205F10105CE
:104CB00004E003DA4FF00002A5F10105002AECD070
:104CC00002981199C0E90231C0E9004579E7000076
:104CD000000014400000F03F300000000000F043EE
:104CE0000000E03F30B5002406E00D5D854202D1B2
:104CF0001C70012030BD641C9442F6DB002030BDE6
:104D00002DE9FF4F95B09A46884606460025EEE10C
:104D1000252877D100242746F94A0121039400E091
:104D2000044316F8013F203B01FA03F01042F7D18B
:104D300030782A2811D06FF02F033078A0F130029C
:104D4000092A16D8039A44F0020402EB820203EB0C
:104D500042021044761C0390EFE758F8042B0392AC
:104D6000002A03DA504244F40054039044F0020451
:104D7000761C30782E2816D116F8010F44F0040462
:104D80002A280DD06FF02F023078A0F13003092BC4
:104D900009D807EB870302EB4303C718761CF3E738
:104DA00058F8047B761C30786C280FD006DC4C2831
:104DB00017D068280DD06A2814D104E0742810D0C8
:104DC0007A280FD10DE044F400140AE044F4801472
:104DD00001E044F440147278824202D104F5801458
:104DE000761C761C307866280BD013DC582877D0D8
:104DF00009DC002875D04528F6D04628F4D047288D
:104E00001AD193E118E0632835D0642879D0652859
:104E100012D18BE1702873D008DC6728F1D06928A3
:104E20006FD06E280DD06F2806D1ACE073282CD03F
:104E3000752874D0782853D05246179990476D1C26
:104E400054E1C4F30250022809D003280DD0D8F849
:104E5000001004280DD00D6008F1040846E1D8F8D0
:104E60000010EA17C1E90052F6E7D8F800100D80EB
:104E7000F2E70D70F0E718F8041B8DF80010002021
:104E80008DF80100EB46012003E058F804BB4FF019
:104E9000FF3061074FF0000102D40DE009F101017C
:104EA0008946B9420FDA8145F8DB1BF80910002961
:104EB000F4D108E009F1010189468142FADB1BF8CF
:104EC00009100029F6D103985346A0EB09072146A3
:104ED0003846179A00F080FA284400EB090507E0ED
:104EE00044E008E10DE01BF8010B5246179990478A
:104EF000B9F10109F7D2534621463846179AF2E034
:104F000039E00A21C4F302524FF0000B0091022A4B
:104F100006D058F8040BC117032A09D00AE023E091
:104F200008F1070020F00702F2E80201904605E0D0
:104F300000B2C117042A01D140B2C117002906DA14
:104F40000A460021404261EB02012D2202E02205C7
:104F500004D52B228DF80420012203E0E20701D0C2
:104F60002022F7E7914657E00A2100E010214FF098
:104F7000000B00910BE010214FF0000B44F00404F3
:104F80000827009103E008204FF0000B0090C4F3C5
:104F90000252022A05D058F8040B0021032A08D037
:104FA00008E008F1070020F00702F2E8020190464D
:104FB00003E080B2042A00D1C0B24FF000092207FA
:104FC0002AD53278702A07D0DDF800C08CF0100C9A
:104FD0005CEA0B0C05D00EE040228DF80420012283
:104FE00008E050EA010306D030238DF804308DF834
:104FF000052002229146009B83F0080353EA0B032D
:105000000AD150EA010201D1620705D530228DF89C
:1050100004204FF001097F1E3278582A04D039A2AB
:105020000C920CAA02920BE03BA2F9E75B46009AB5
:10503000FBF7EEFB0C9B9B5C029A521E02921370D4
:1050400050EA0102F2D1029804A9081A00F1200BDB
:10505000600702D524F4803400E001275F4502DDBB
:10506000A7EB0B0000E0002000EB0B010090039881
:105070004944401A0390E00306D453462146179A48
:10508000039800F0A9F90544002706E001A852465C
:10509000C05D179990476D1C7F1C4F45F6DBE00300
:1050A0000CD553462146179A039800F095F905440C
:1050B00004E030205246179990476D1C0099481E15
:1050C00000900029F5DC08E0029802995246007829
:1050D000491C0291179990476D1CBBF10001ABF17F
:1050E000010BF1DC5BE100F065F90544761C3078DA
:1050F00000287FF40DAE19B02846BDE8F08F0000FF
:10510000092801003031323334353637383961629D
:105110006364656600000000303132333435363761
:10512000383941424344454600000000600700D43E
:10513000062708F1070020F00700F0E80223804668
:1051400003F0004C5FEA0C0001D097A009E02005B5
:1051500001D596A005E0E00701D095A001E0AFF2EF
:105160004C001390307823F0004365280CD006DC07
:10517000452809D046281DD047287FD13BE0662826
:1051800018D067287AD136E00021112F01DB1120D9
:1051900000E0781CCDE9000104A90CA8FFF7E0FCB1
:1051A000DDE90D010C9A4FF0000B07F10109109297
:1051B00000914EE04FF000400097CDE9011004A9A6
:1051C0000CA8FFF7CDFCDDE90D020C9B0F994FF009
:1051D000000B91461093009211B9791C00EB010964
:1051E000B7EB090003D4C0F1FF3B07F10109A9EBBC
:1051F0000700019042E0012F00DA01270021112F62
:1052000001DD112000E03846CDE9000104A90CA819
:10521000FFF7A6FCDDE90D010C9A00914FF0000BA1
:10522000B946109221070FD4009A4A4503DA9146F5
:1052300001E0A9F10109B9F1010F05DD109AA9F109
:105240000101515C3029F4D0B84202DA10F1040FA8
:1052500003DA0121CDE9011010E0002803DC8344CA
:10526000A9EB000102E0411C494500DD8946A0EBA5
:105270000B00401C01904FF000400290200705D425
:105280000198484502DB4FF0FF30019000208DF877
:105290004B0002980DF14B07B0F1004F25D00220D2
:1052A0000C902B200D90029800280CDA40420290BE
:1052B0002D200D9007E00A210298FBF793FA303178
:1052C000029007F8011D0C99481E0C900029F2DC91
:1052D00002980028EFD1791E0D980870307800F000
:1052E000200040F0450007F8020D11A8C01BC01DAA
:1052F00002901398007800B1012000EB0901019899
:1053000001EBE071029801440398401A401E03909B
:10531000E00306D453462146179A039800F05CF840
:1053200005441398007818B15246179990476D1CA0
:10533000E00323D553462146179A039800F04CF812
:1053400005441BE0BBF1000F07DB0098584504DD66
:105350001098179910F80B0001E017993020524669
:10536000904701980BF1010B401E05F101050190DA
:1053700004D12E205246179990476D1CB9F10001B7
:10538000A9F10109DEDC05E017F8010B5246179977
:1053900090476D1C0299481E02900029F4DC534688
:1053A0002146179A03989EE62D0000002B0000006E
:1053B000200000002DE9F041044600251E46174656
:1053C000880404D405E039462020B0476D1C641ED3
:1053D000F9D52846BDE8F0812DE9F04104460025C5
:1053E0001E469046C80301D5302700E020278804D8
:1053F00004D505E041463846B0476D1C641EF9D51A
:105400002846BDE8F08100002DE9F84F04460D461E
:1054100021F0004000917349814211DC72498842B9
:1054200001DC06D12CB120462946BDE8F84FFFF734
:1054300067BB6E48002DCCBF6D496E49BDE8F88F43
:105440006D49814211DD6D498142D8BF4FF0FF3671
:105450006DDD20462946FFF7D1FA042808BFFFF783
:1054600061FB20462946BDE8F88F6549654F25F068
:105470000045814233DD6449814219DD0026324610
:105480004FF0804320462946FAF765FF80468A465A
:10549000012220462946FBF7E6F800223B46FAF7B0
:1054A000FBFF42465346FBF76FF804460D463EE0CD
:1054B00001260022BA463B4620462946FAF74BFF12
:1054C00080460F460022534620462946FAF7E4FF5D
:1054D00042463B46FBF758F804460D4627E04B4949
:1054E00081421BDDDFF828A1022600225346204618
:1054F0002946FAF7D7FF00223B46FAF72CFF8046F1
:105500000F460022534620462946FAF7C5FF424679
:105510003B46FBF739F804460D4608E003262246D1
:105520002B4600203B49FBF72FF804460D46224648
:105530002B4610461946FAF7B5FF8B4682460246BF
:105540000B46FAF7AFFF07460246334888460B463C
:1055500006217844FFF776FA52465B46FAF7A2FF37
:1055600082462E488B463A46434605217844FFF74B
:1055700069FA3A464346FAF795FF02460B46002E73
:10558000504659460CDAFAF7E6FE22462B46FAF761
:1055900089FF01B022462B46BDE8F04FFAF77FBFE6
:1055A000FAF7D9FE22462B46FAF77CFF1C4A7A44CA
:1055B00002EBC603D3E90023FAF76EFF22462B461F
:1055C000FAF76AFF174A7A4402EBC603D3E90023CD
:1055D000FAF765FF009A002AB8BF81F00041BDE8E4
:1055E000F88F0000000010440000F07F182D445494
:1055F000FB21F93FFB21F9BF0000DC3F0000203E0A
:105600000000F33F0000F03F0000E63F0080034051
:105610000000F83F0000F0BF0A150000C8140000A9
:10562000661400002E1400002DE9F04D9446CCF1D4
:10563000000423F000464CEA0404594F46EAD474AF
:105640009A46884621F00042BC4206D8454240EACC
:10565000050442EAD474BC4204D9BDE8F04D624668
:10566000FFF751BAAAF14055A5F17F6555EA0C0440
:105670000BD0022404EAAA744A4DDFF82CE144EA74
:10568000D87452EA000B04D00CE0BDE8F04DFFF7EF
:10569000BBBE002C14BF012CBDE8F08D022C30D015
:1056A000032C32D056EA0C0B0AD0BE4220D1BA42AB
:1056B00009D126F0804622F080423346114617E099
:1056C00000291ADB25E0DFF8E4B0FB44002C04BF1E
:1056D000DBE90001BDE8F08D012C02BFDBE9000130
:1056E00081F00041BDE8F08D022C0AD0032C0CD0D3
:1056F000BA4212D1B8F1000F0BDA2A482C49BDE8A2
:10570000F08D28462B49BDE8F08D28467146BDE84E
:10571000F08D24482849BDE8F08D921B12153C2AD3
:10572000C4BF204F244E10DCBAF1000FBEBF12F1EF
:105730003C0F00273E4608DB6246FAF725FF21F0C2
:105740000041FFF761FE07460E4694B1012C08BFE9
:1057500086F000460DD0194A194B022C38463146C6
:1057600015D0FAF799FE2A46BDE8F04D114BFAF72D
:1057700093BE0022134638463146FBF789F904BF31
:105780000220FFF7E7F938463146BDE8F08DFAF719
:1057900083FE2A46BDE8F04D064BFAF780BE0000B6
:1057A0000000F07F182D4454FB2109C0FA130000BB
:1057B000FB21F9BFFB210940FB21F93F075C1433B2
:1057C00026A6A13C0D4900220B685A620A6813689C
:1057D00043F00103136009684A6A8242FCD3086AF5
:1057E00041F21112104207D1086A9210104203D1FF
:1057F000086820F00100086070470000A809002038
:1058000004490A685206FCD5024AC1B2121D116051
:1058100070470000003801402DE9F04DC84A0024CF
:1058200090B0914205DA21F00043934201D805D1AE
:1058300020B110B0BDE8F04DFFF762B9B1F5801F9F
:105840001BDA53EA000209D0002911DA0120FFF720
:1058500081F910B0BDE8F04DFFF757B90220FFF70E
:1058600079F9FFF745F910B081F00041BDE8F08DFE
:105870006FF035043622FAF7F6FE04EB2152C1F33D
:105880001308B049A2F2FF33414401F4801282F0C0
:105890007F6103EB225281F04051009241EA0801FE
:1058A0000022A94BFAF7F8FD044608F10200A74EC2
:1058B000C0F313000D467E44032867D2D6E90023C7
:1058C0002046FBF7E5F81ED10098002802BFD6E974
:1058D000000110B0BDE8F08DFAF700FF07460C4656
:1058E0009B4A9C4BFAF7DEFD06460D469A4A9B4BB7
:1058F00038462146FAF7D6FD10B032462B46BDE8B1
:10590000F04DFAF728BD4FF05532954B2046294609
:10591000FAF7C8FD0022934BFAF7C1FD06460F4681
:1059200022462B4610461946FAF7BCFD32463B4646
:10593000FAF7B8FD064600980F46F0B1FAF7CEFE2A
:1059400080468A46824A834BFAF7ACFD32463B4694
:10595000FAF7A5FD22462B46FAF79EFD05460C46B2
:105960007D4A7E4B40465146FAF79CFD10B02A46D0
:105970002346BDE8F04DFAF78FBD0B4610B0324616
:1059800020462946BDE8F04DFAF786BD00224FF0CB
:1059900080432046FAF7DFFC02460B4620462946A4
:1059A000FAF7F2FD06460F460098FAF797FECDE9A2
:1059B000040132463B4610463946FAF773FD0C9017
:1059C00069480C9A4044019009910B461046FAF739
:1059D00069FD8246024665488B46C8F151080B4670
:1059E00008F5D72803217844FFF72CF852465B4688
:1059F000FAF758FD0A905E480D9152465B46042125
:105A00007844FFF71FF8099B0C9AFAF74BFD844680
:105A100001980D9B40EA080860460A9AFAF79BFC39
:105A200083460891B8F1000F4EDD4FF0FF3220465B
:105A30002946FAF718FE22462B46FAF733FD804630
:105A400000988A4660B3DDE90401414A414BFAF708
:105A500029FD099100905A4640465146089BFAF7A5
:105A60007AFC32463B46FAF71DFD099B009AFAF78D
:105A700072FC42465346FAF712FD22462B46FAF7CD
:105A80000BFD04460D46DDE90401334A334BFAF7BA
:105A900009FD10B022462B46BDE8F04DFAF7FCBCDC
:105AA0005A464046089BFAF756FC32463B46FAF700
:105AB000F9FC42465346FAF7F2FC10B022462B4658
:105AC000BDE8F04DFAF7EBBC009840B3DDE9040106
:105AD0001F4A204BFAF7E6FC80468A465A46204683
